:020000040000FA
:040000003CEF19F0C8
:100F0000005765640054756500467269004D6F6E48
:100F10000053756E005361740054687500256C753C
:100F20000000000E00019B6F000E9A6F000E9D6F77
:100F3000000E9C6F000E9F6F000E9E6F000E8E6F56
:100F4000000E8D6F51EC19F0DCEC18F083EC18F00A
:100F5000B8EC15F0888488868888888A000E0F018E
:100F6000116F8A908F908A928F928A948F948A9A26
:100F70008F9A8DA4BEEF07F0C0EF07F015EF0CF0CD
:100F80000001A851A911AA11AB11D8A4CAEF07F00A
:100F9000CCEF07F0D8EF07F02DEC18F001C0A8F067
:100FA00002C0A9F003C0AAF004C0ABF0F8EF07F04C
:100FB0002DEC18F00001A85101246A6FA9510220FC
:100FC0006B6FAA5103206C6FAB5104206D6FD890EA
:100FD0006D336C336B336A33010E6A25A86F000ED4
:100FE0006B21A96F000E6C21AA6F000E6D21AB6FF3
:100FF000A8C001F0A9C002F0AAC003F0ABC004F081
:101000002A0E056E000E066E000E076E000E086EAC
:1010100066EC15F001C07AF002C07BF0A8C001F0C8
:10102000A9C002F0AAC003F0ABC004F0110E056E17
:10103000000E066E000E076E000E086E66EC15F0D0
:1010400001C089F002C08AF0A8C001F0A9C002F076
:10105000AAC003F0ABC004F0920E056E000E066E3F
:10106000000E076E000E086E66EC15F0010E0124EE
:1010700000017C6F000E02207D6FA8C001F0A9C0A6
:1010800002F0AAC003F0ABC004F0550E056E000ECE
:10109000066E000E076E000E086E66EC15F0010E6F
:1010A000012400017E6F000E02207F6FA8C001F0B6
:1010B000A9C002F0AAC003F0ABC004F0210E056E77
:1010C000000E066E000E076E000E086E66EC15F040
:1010D000010E01240001806F000E0220816FA8C064
:1010E00001F0A9C002F0AAC003F0ABC004F00A0EE0
:1010F000056E000E066E000E076E000E086E66ECA2
:1011000015F001C082F002C083F08DB68AEF08F0BE
:101110008CEF08F0E7EF08F000019A4B9B2B080ECC
:101120009A199B11D8A497EF08F099EF08F09DEF5A
:1011300008F0000E9B6F000E9A6F100E6E6F270E58
:101140006F6F000E706F000E716FA8EF08F0858052
:101150006E07000E6F5B705B715B6E516F117011EB
:101160007111D8A4B6EF08F0B8EF08F0A7EF08F0B7
:101170009A519B11D8B4BFEF08F0C1EF08F0E7EF28
:1011800008F08590E7EF08F07A512DEC16F011EF9A
:1011900009F089515EEC17F011EF09F08951F8EC74
:1011A00015F011EF09F07C516AEC18F011EF09F01D
:1011B0007E5197EC16F011EF09F08051CBEC16F050
:1011C00011EF09F0825132EC17F011EF09F0000134
:1011D0009A516A6F6B6B6B51000AD8B4F2EF08F04A
:1011E00011EF09F06A51010AD8B4C4EF08F0030AFC
:1011F000D8B4C9EF08F0010AD8B4CEEF08F0070A56
:10120000D8B4D3EF08F0010AD8B4D8EF08F0030A35
:10121000D8B4DDEF08F0010AD8B4E2EF08F011EF1E
:1012200009F0000E0001936F000E926F93BF22EF42
:1012300009F0935109E1020E925DD8A022EF09F066
:1012400024EF09F026EF09F032EF09F0A30E922502
:10125000D96E000E9321DA6E000EDF6E924B932B47
:1012600016EF09F0540EB1EC14F03A0EB1EC14F094
:10127000200EB1EC14F0A30E586E000E596E1D0E28
:101280005A6E0F0E5B6EA9EC18F000016A6F6A517E
:101290005C6E5D6AE2EC17F0A3C0A7F0A4C0A6F0F4
:1012A0000001A751D8B457EF09F059EF09F06AEFE0
:1012B00009F0A651D8B45FEF09F061EF09F06AEFC9
:1012C00009F0A751B1EC14F00001A651B1EC14F0F3
:1012D00089EF09F0A751D8B470EF09F072EF09F067
:1012E00083EF09F0A651D8A478EF09F07AEF09F05E
:1012F00083EF09F0300EB1EC14F00001A751B1EC0E
:1013000014F089EF09F0300EB1EC14F0300EB1ECAE
:1013100014F03A0EB1EC14F0A30E586E000E596E94
:101320001D0E5A6E0F0E5B6E0CEC19F000016A6F09
:101330006A515C6E5D6AE2EC17F0A3C0A7F0A4C02E
:10134000A6F00001A751D8B4A8EF09F0AAEF09F060
:10135000BBEF09F0A651D8B4B0EF09F0B2EF09F035
:10136000BBEF09F0A751B1EC14F00001A651B1ECAC
:1013700014F0DAEF09F0A751D8B4C1EF09F0C3EFC8
:1013800009F0D4EF09F0A651D8A4C9EF09F0CBEFCA
:1013900009F0D4EF09F0300EB1EC14F00001A751C0
:1013A000B1EC14F0DAEF09F0300EB1EC14F0300EBD
:1013B000B1EC14F03A0EB1EC14F0A30E586E000E1E
:1013C000596E1D0E5A6E0F0E5B6E98EC18F00001F0
:1013D0006A6F6A515C6E5D6AE2EC17F0A3C0A7F019
:1013E000A4C0A6F00001A751D8B4F9EF09F0FBEFB3
:1013F00009F00CEF0AF0A651D8B401EF0AF003EFA0
:101400000AF00CEF0AF0A751B1EC14F00001A6515C
:10141000B1EC14F02BEF0AF0A751D8B412EF0AF098
:1014200014EF0AF025EF0AF0A651D8A41AEF0AF03B
:101430001CEF0AF025EF0AF0300EB1EC14F00001B9
:10144000A751B1EC14F02BEF0AF0300EB1EC14F010
:10145000300EB1EC14F0200EB1EC14F0000E0001CF
:10146000956F000E946F95BF3FEF0AF0955109E11B
:10147000030E945DD8A03FEF0AF041EF0AF043EF6E
:101480000AF0A3EF0AF08F0E9425D96E000E952175
:10149000DA6E000EDF6E944B952B33EF0AF08F0E51
:1014A000586E000E596E110E5A6E0F0E5B6EE2EC06
:1014B00017F0CEEF0AF08F0E586E000E596E0D0E1B
:1014C0005A6E0F0E5B6EE2EC17F0CEEF0AF08F0E45
:1014D000586E000E596E050E5A6E0F0E5B6EE2ECE2
:1014E00017F0CEEF0AF08F0E586E000E596E010EF7
:1014F0005A6E0F0E5B6EE2EC17F0CEEF0AF08F0E15
:10150000586E000E596E190E5A6E0F0E5B6EE2EC9D
:1015100017F0CEEF0AF08F0E586E000E596E090EBE
:101520005A6E0F0E5B6EE2EC17F0CEEF0AF08F0EE4
:10153000586E000E596E150E5A6E0F0E5B6EE2EC71
:1015400017F0CEEF0AF049EC19F000016A6F6B6BEF
:101550006B51000AD8B4AFEF0AF0CEEF0AF06A512F
:10156000010AD8B44FEF0AF0030AD8B45BEF0AF0CF
:10157000010AD8B467EF0AF0070AD8B473EF0AF08B
:10158000010AD8B47FEF0AF0030AD8B48BEF0AF04F
:10159000010AD8B497EF0AF0CEEF0AF0200EB1ECB2
:1015A00014F0000E0001976F000E966F97BFE2EFE8
:1015B0000AF0975109E1030E965DD8A0E2EF0AF018
:1015C000E4EF0AF0E6EF0AF0F6EF0AF08F0E962548
:1015D000D96E000E9721DA6EDF50866F8651B1EC1E
:1015E00014F00001964B972BD6EF0AF0C00E54EC86
:1015F00014F0440EB1EC14F03A0EB1EC14F0200EDD
:10160000B1EC14F0A30E586E000E596E1D0E5A6EFA
:101610000F0E5B6EFCEC18F000016A6F6A515C6E95
:101620005D6AE2EC17F0A3C0A7F0A4C0A6F0000129
:10163000A751D8B41EEF0BF020EF0BF031EF0BF0F9
:10164000A651D8B426EF0BF028EF0BF031EF0BF0DA
:10165000A751B1EC14F00001A651B1EC14F050EF19
:101660000BF0A751D8B437EF0BF039EF0BF04AEF7E
:101670000BF0A651D8A43FEF0BF041EF0BF04AEF6F
:101680000BF0300EB1EC14F00001A751B1EC14F0E6
:1016900050EF0BF0300EB1EC14F0300EB1EC14F052
:1016A0002F0EB1EC14F0A30E586E000E596E1D0EE5
:1016B0005A6E0F0E5B6E1CEC19F000016A6F6A51D6
:1016C0005C6E5D6AE2EC17F0A3C0A7F0A4C0A6F0C0
:1016D0000001A751D8B46FEF0BF071EF0BF082EF60
:1016E0000BF0A651D8B477EF0BF079EF0BF082EF47
:1016F0000BF0A751B1EC14F00001A651B1EC14F0BD
:10170000A1EF0BF0A751D8B488EF0BF08AEF0BF0E4
:101710009BEF0BF0A651D8A490EF0BF092EF0BF0DB
:101720009BEF0BF0300EB1EC14F00001A751B1ECBF
:1017300014F0A1EF0BF0300EB1EC14F0300EB1EC60
:1017400014F02F0EB1EC14F0320EB1EC14F0300E98
:10175000B1EC14F0A30E586E000E596E1D0E5A6EA9
:101760000F0E5B6EECEC18F000016A6F6A515C6E54
:101770005D6AE2EC17F0A3C0A7F0A4C0A6F00001D8
:10178000A751D8B4C6EF0BF0C8EF0BF0D9EF0BF0B0
:10179000A651D8B4CEEF0BF0D0EF0BF0D9EF0BF091
:1017A000A751B1EC14F00001A651B1EC14F0F8EF20
:1017B0000BF0A751D8B4DFEF0BF0E1EF0BF0F2EF35
:1017C0000BF0A651D8A4E7EF0BF0E9EF0BF0F2EF26
:1017D0000BF0300EB1EC14F00001A751B1EC14F095
:1017E000F8EF0BF0300EB1EC14F0300EB1EC14F059
:1017F000200EB1EC14F0200EB1EC14F000019E05A7
:101800009F11D8A406EF0CF008EF0CF00DEF0CF0D0
:10181000410EB1EC14F010EF0CF02A0EB1EC14F004
:10182000020E54EC14F01CEF0EF000018D518E11DD
:10183000D8A41DEF0CF01FEF0CF027EF0CF0010EF9
:1018400054EC14F000018D4B8E2B37EF0CF08D050E
:101850008E11D8A42EEF0CF030EF0CF037EF0CF017
:10186000020E54EC14F000018D07D8A08E07A85189
:10187000A911AA11AB11D8A440EF0CF042EF0CF063
:101880004EEF0CF02DEC18F001C0A8F002C0A9F04A
:1018900003C0AAF004C0ABF06EEF0CF02DEC18F012
:1018A0000001A85101246A6FA95102206B6FAA514F
:1018B00003206C6FAB5104206D6FD8906D336C3387
:1018C0006B336A33010E6A25A86F000E6B21A96F76
:1018D000000E6C21AA6F000E6D21AB6FA8C001F045
:1018E000A9C002F0AAC003F0ABC004F02A0E056E36
:1018F000000E066E000E076E000E086E66EC15F008
:1019000001C084F002C085F0A8C001F0A9C002F0B7
:10191000AAC003F0ABC004F0110E056E000E066EF7
:10192000000E076E000E086E66EC15F001C08BF01D
:1019300002C08CF08DB69FEF0CF0A1EF0CF0E8EF39
:101940000CF000019C4B9D2B040E9C199D11D8A4FA
:10195000ACEF0CF0AEEF0CF0B2EF0CF0000E9D6FA0
:10196000000E9C6F100E726F270E736F000E746F57
:10197000000E756FBDEF0CF085827207000E735B71
:10198000745B755B7251731174117511D8A4CBEF30
:101990000CF0CDEF0CF0BCEF0CF09C519D11D8B4C5
:1019A000D4EF0CF0D6EF0CF0E8EF0CF08592E8EFF6
:1019B0000CF0845162EC16F002EF0DF08B51B6EC96
:1019C00017F002EF0DF08B518AEC17F002EF0DF0DB
:1019D00000019C516A6F6B6B6B51000AD8B4F3EF36
:1019E0000CF002EF0DF06A51010AD8B4D9EF0CF0F7
:1019F000030AD8B4DEEF0CF0010AD8B4E3EF0CF020
:101A000002EF0DF0000E0001996F000E986F99BF64
:101A100013EF0DF0995109E1020E985DD8A013EF74
:101A20000DF015EF0DF017EF0DF023EF0DF0A00EF8
:101A30009825D96E000E9921DA6E000EDF6E984B54
:101A4000992B07EF0DF0410EB1EC14F03A0EB1EC0A
:101A500014F0200EB1EC14F0A00E586E000E596E6A
:101A60001D0E5A6E0F0E5B6ECBEC18F000016A6F04
:101A70006A515C6E5D6AE2EC17F0A0C0A5F0A1C0EF
:101A8000A2F00001A551D8B448EF0DF04AEF0DF0D7
:101A90005BEF0DF0A251D8B450EF0DF052EF0DF006
:101AA0005BEF0DF0A551B1EC14F00001A251B1ECC7
:101AB00014F07AEF0DF0A551D8B461EF0DF063EF9B
:101AC0000DF074EF0DF0A251D8A469EF0DF06BEF9B
:101AD0000DF074EF0DF0300EB1EC14F00001A551D3
:101AE000B1EC14F07AEF0DF0300EB1EC14F0300ED2
:101AF000B1EC14F03A0EB1EC14F0A00E586E000EDA
:101B0000596E1D0E5A6E0F0E5B6E2CEC19F0000113
:101B10006A6F6A515C6E5D6AE2EC17F0A0C0A5F0D6
:101B2000A1C0A2F00001A551D8B499EF0DF09BEF30
:101B30000DF0ACEF0DF0A251D8B4A1EF0DF0A3EF72
:101B40000DF0ACEF0DF0A551B1EC14F00001A25175
:101B5000B1EC14F0CBEF0DF0A551D8B4B2EF0DF00D
:101B6000B4EF0DF0C5EF0DF0A251D8A4BAEF0DF00F
:101B7000BCEF0DF0C5EF0DF0300EB1EC14F000012C
:101B8000A551B1EC14F0CBEF0DF0300EB1EC14F028
:101B9000300EB1EC14F03A0EB1EC14F0A00E586E09
:101BA000000E596E1D0E5A6E0F0E5B6EBAEC18F0D9
:101BB00000016A6F6A515C6E5D6AE2EC17F0A0C0CA
:101BC000A5F0A1C0A2F00001A551D8B4EAEF0DF034
:101BD000ECEF0DF0FDEF0DF0A251D8B4F2EF0DF0E7
:101BE000F4EF0DF0FDEF0DF0A551B1EC14F0000194
:101BF000A251B1EC14F01CEF0EF0A551D8B403EFD4
:101C00000EF005EF0EF016EF0EF0A251D8A40BEF78
:101C10000EF00DEF0EF016EF0EF0300EB1EC14F0EA
:101C20000001A551B1EC14F01CEF0EF0300EB1EC38
:101C300014F0300EB1EC14F00F0E016E680ECBEC08
:101C400010F000016A6F6AA128EF0EF02AEF0EF083
:101C500030EF0EF0000E886F010E876F34EF0EF03C
:101C6000000E886F000E876F8DB839EF0EF03BEFD6
:101C70000EF08AEF0EF09E519F11D8A442EF0EF0A5
:101C800044EF0EF059EF0EF00E0E016E050E026ECF
:101C9000680E91EC13F00A0E016E800E026E680E53
:101CA00091EC13F0000E00019F6F010E9E6F6EEF1E
:101CB0000EF09E059F11D8A460EF0EF062EF0EF0BB
:101CC0006EEF0EF00E0E016E040E026E680E91ECB9
:101CD00013F0000E00019F6F000E9E6F100E766FC6
:101CE000270E776F000E786F000E796F79EF0EF088
:101CF00085847607000E775B785B795B7651771188
:101D000078117911D8A487EF0EF089EF0EF078EFF3
:101D10000EF0859487058811D8A491EF0EF093EF0B
:101D20000EF0B9EF07F09FEF0EF0858A530EE82E04
:101D3000FED700F0859A530EE82EFED700F08DB83E
:101D4000A4EF0EF0A6EF0EF095EF0EF00F0E016E61
:101D5000000E026E680E91EC13F0B9EF07F000EF81
:101D600000F03EC0D9FF3FC0DAFFDECFF6FFDDCF87
:101D7000F7FF000EF86E0800F550250AD8A4C3EF4F
:101D80000EF0C5EF0EF0ADEF0FF03EC0D9FF3FC033
:101D9000DAFFDE2A000EDD22000E0001AF6F000E1A
:101DA000AE6FAEC05EF0AFC05FF0B069B1693EC06B
:101DB000D9FF3FC0DAFFDECFF6FFDDCFF7FF000E21
:101DC000F86E0800F550750AD8A4E9EF0EF0EBEFB5
:101DD0000EF02CEF0FF03EC0D9FF3FC0DAFFDE2A35
:101DE000000EDD2240C0D9FF41C0DAFFDFCF42F054
:101DF000020EDE26DFCF43F0000EDD2242C0D9FF07
:101E000043C0DAFFDECF44F0DDCF45F044C048F0F8
:101E100045C049F04A6A4B6A4C6A4D6A4E6A4F6A3D
:101E20003CC01CF03DC01DF048C01EF049C01FF072
:101E30004AC020F04BC021F04CC022F04DC023F02E
:101E40004EC024F04FC025F0CBEC0FF01CC03CF08E
:101E50001DC03DF0CAEF0FF03EC0D9FF3FC0DAFF12
:101E6000DECF01F0DDCF02F01E0E036E0F0E046E0A
:101E7000000E066E020E056E6FEC11F0015002109E
:101E8000D8A445EF0FF047EF0FF075EF0FF0020EFB
:101E90003EC0D9FF3FC0DAFFDE26000EDD2240C083
:101EA000D9FF41C0DAFFDFCF42F0040EDE26DFCFDC
:101EB00043F0000EDD2242C0D9FF43C0DAFFDECF7F
:101EC00044F0DECF45F0DECF46F0DECF47F04450A1
:101ED000486E4550496E46504A6E47504B6E4C6AAC
:101EE0004D6A4E6A4F6A10EF0FF03EC0D9FF3FC0F7
:101EF000DAFFDECFF6FFDDCFF7FF000EF86E080049
:101F0000F550250AD8A487EF0FF089EF0FF0A0EF66
:101F10000FF03EC0D9FF3FC0DAFFDE2A000EDD22FF
:101F2000000E026E250E016E3CC003F03DC004F0B1
:101F3000CAEC12F0000E3D6E010E3C6ECAEF0FF0BF
:101F40003EC0D9FF3FC0DAFFDE2A000EDD22000EC0
:101F50003D6E000E3C6ECAEF0FF03EC0D9FF3FC091
:101F6000DAFFDECFF6FFDDCFF7FF000EF86E0800D8
:101F7000F550016E026A3CC003F03DC004F0CAECAB
:101F800012F03EC0D9FF3FC0DAFFDE2A000EDD228C
:101F90009AEF0FF012000001B1BFD1EF0FF0D3EFB5
:101FA0000FF0D4EF0FF05E92B1BFE1EF0FF0B1513F
:101FB00006E1B005D8B0DFEF0FF0E1EF0FF0E7EF8B
:101FC0000FF0000E2F6E010E2E6EEBEF0FF0B0C073
:101FD0002EF0B1C02FF0AEC030F0AFC031F01EC057
:101FE00032F01FC033F020C034F021C035F022C0E1
:101FF00036F023C037F024C038F025C039F0000E89
:102000003B6E1F0E3A6E000ED16F7DEF10F03A0658
:10201000D8A03B06B20E3A24D96E000E3B20DA6EF1
:1020200032C001F033C002F034C003F035C004F018
:1020300036C005F037C006F038C007F039C008F0E8
:102040000A0E096E000E0A6E000E0B6E000E0C6E6C
:10205000000E0D6E000E0E6E000E0F6E000E106E56
:1020600062EC12F001C026F002C027F003C028F095
:1020700004C029F005C02AF006C02BF007C02CF0E0
:1020800008C02DF02650300FDF6E2E06D8A02F0688
:102090003006D8A0310632C001F033C002F034C09F
:1020A00003F035C004F036C005F037C006F038C084
:1020B00007F039C008F00A0E096E000E0A6E000E15
:1020C0000B6E000E0C6E000E0D6E000E0E6E000EEE
:1020D0000F6E000E106EEAEC11F001C032F002C07B
:1020E00033F003C034F004C035F005C036F006C04C
:1020F00037F007C038F008C039F03A503B10D8B478
:1021000084EF10F086EF10F0B6EF10F0325033107D
:10211000341035103610371038103910D8A493EF1A
:1021200010F095EF10F007EF10F02FBEA2EF10F0B7
:102130002F5006E12E04D8B0A0EF10F0A2EF10F05F
:1021400007EF10F031BEADEF10F0315008E1300470
:10215000D8A0ADEF10F0AFEF10F0B6EF10F05EB218
:10216000B4EF10F0B6EF10F007EF10F01CC011F054
:102170001DC012F0B20E3A24136E000E3B20146EF6
:1021800030C015F031C016F0F3EC13F011C01CF0A4
:1021900012C01DF01200076E978097B0D2EF10F0BA
:1021A000D4EF10F0CDEF10F007500724FE0B926E25
:1021B00095B4DDEF10F0DFEF10F0D8EF10F097AC32
:1021C000E4EF10F0E6EF10F0F1EF10F0978497B421
:1021D000ECEF10F0EEEF10F0E7EF10F0000E6EEF06
:1021E00011F001C092FF95B4F8EF10F0FAEF10F083
:1021F000F3EF10F097ACFFEF10F001EF11F00BEFE1
:1022000011F0978497B407EF11F009EF11F002EF86
:1022100011F0EEEF10F0978297B211EF11F013EF7B
:1022200011F00CEF11F0D8800734926E95B41BEFCB
:1022300011F01DEF11F016EF11F097AC22EF11F035
:1022400024EF11F02EEF11F0978497B42AEF11F0DC
:102250002CEF11F025EF11F0EEEF10F09786100E35
:10226000026E270E036E000E046E000E056E53EF15
:1022700011F00206000E035A045A055A02500310C8
:1022800004100510D8A447EF11F049EF11F053EFF7
:1022900011F0978497B44FEF11F051EF11F04AEF1E
:1022A00011F0EEEF10F095A058EF11F05AEF11F089
:1022B00039EF11F092CF06F0978A978897B863EFBD
:1022C00011F065EF11F05EEF11F0978497B46BEFAA
:1022D00011F06DEF11F066EF11F00650120001C021
:1022E00008F002C009F003C00AF004C00BF00506B4
:1022F000D8A00606052806E10628D8A482EF11F02A
:1023000084EF11F091EF11F0000E026E000E016EDD
:10231000E9EF11F0084A092A0A4A0B2A0506D8A053
:10232000060608C0F6FF09C0F7FF000EF86E0800A9
:10233000F5500009D8B49FEF11F0A1EF11F0D3EFE1
:1023400011F00AC0F6FF0BC0F7FF000EF86E080090
:10235000F5500009D8B4AFEF11F0B1EF11F0D3EFA1
:1023600011F005500610D8B4B8EF11F0BAEF11F023
:10237000D3EF11F008C0F6FF09C0F7FF000EF86EAA
:102380000800F5CF07F00AC0F6FF0BC0F7FF000EFC
:10239000F86E0800F5500718D8B4D1EF11F0D3EF5C
:1023A00011F08AEF11F008C0F6FF09C0F7FF000E28
:1023B000F86E0800F5CF07F00AC0F6FF0BC0F7FF74
:1023C000000EF86E0800F550075C016E026AD8A096
:1023D0000206120020EE11F0070EDE6AE806FDE2AA
:1023E00009500A100B100C100D100E100F101010C9
:1023F000D8B4FDEF11F0FFEF11F051EF12F0010E24
:10240000196E0DEF12F0D89009360A360B360C36DD
:102410000D360E360F361036192A10AE12EF12F0A6
:1024200014EF12F003EF12F0D89011361236133673
:10243000143615361636173618360950015C0A5010
:1024400002580B5003580C5004580D5005580E50AC
:1024500006580F50075810500858D8A032EF12F005
:1024600034EF12F045EF12F00950015E0A50025AA3
:102470000B50035A0C50045A0D50055A0E50065A70
:102480000F50075A1050085A1180D89010320F324E
:102490000E320D320C320B320A320932192E14EF81
:1024A00012F011C001F012C002F013C003F014C00A
:1024B00004F015C005F016C006F017C007F018C0EC
:1024C00008F0120009500A100B100C100D100E101D
:1024D0000F101010D8B46FEF12F071EF12F0B9EFC7
:1024E00012F0010E116E7FEF12F0D89009360A3605
:1024F0000B360C360D360E360F361036112A10AE4E
:1025000084EF12F086EF12F075EF12F00950015CC3
:102510000A5002580B5003580C5004580D500558DF
:102520000E5006580F50075810500858D8A09BEF6F
:1025300012F09DEF12F0ADEF12F00950015E0A505B
:10254000025A0B50035A0C50045A0D50055A0E50A3
:10255000065A0F50075A1050085AD89010320F32AE
:102560000E320D320C320B320A320932112E86EF46
:1025700012F001C001F002C002F003C003F004C079
:1025800004F005C005F006C006F007C007F008C05B
:1025900008F0120003500410D8B4D1EF12F0D3EFBA
:1025A00012F0DCEF12F003500410D8A4DAEF12F0AE
:1025B000DCEF12F0E1EF12F0015056EC19F02EEFC3
:1025C00013F020EE04F00350D9260450DA22DE5036
:1025D000DE10D8B4EEEF12F0F0EF12F00BEF13F0C4
:1025E00020EE04F00350D9260450DA2210EE02F057
:1025F0000350E1260450E222DE50E65CE650800AF9
:10260000096EDE50800A0958D8B009EF13F00BEFBD
:1026100013F02EEF13F020EE02F00350D9260450F1
:10262000DA22DECF05F0DDCF06F003C0D9FF04C00B
:10263000DAFFDECF07F0DDCF08F005500724D96EB2
:1026400006500820DA6E01C0DFFF20EE02F00350D2
:10265000D9260450DA22DE2A000EDD221200000EF6
:10266000066E04BE38EF13F036EF13F03EEF13F0B2
:10267000036C041ED8B0042A010E066E02BE45EF9C
:1026800013F043EF13F04BEF13F0016C021ED8B0C0
:10269000022A010E061A000E086E000E076E035085
:1026A0000410D8B456EF13F058EF13F080EF13F086
:1026B000010E056E60EF13F0D89003360436052A3C
:1026C00004AE65EF13F067EF13F05CEF13F0D890F2
:1026D000073608360350015C04500258D8A073EF47
:1026E00013F075EF13F07AEF13F00350015E04500E
:1026F000025A0780D89004320332052E67EF13F098
:102700000650D8B486EF13F088EF13F08CEF13F077
:10271000076C081ED8B0082A07C001F008C002F0F4
:102720001200036E978097B098EF13F09AEF13F0B2
:1027300093EF13F003500324FE0B926E95B4A3EFB6
:1027400013F0A5EF13F09EEF13F097ACAAEF13F080
:10275000ACEF13F0B6EF13F0978497B4B2EF13F029
:10276000B4EF13F0ADEF13F0F2EF13F001C092FFEE
:1027700095B4BDEF13F0BFEF13F0B8EF13F097ACC3
:10278000C4EF13F0C6EF13F0D0EF13F0978497B4B3
:10279000CCEF13F0CEEF13F0C7EF13F0F2EF13F01E
:1027A00002C092FF95B4D7EF13F0D9EF13F0D2EF38
:1027B00013F097ACDEEF13F0E0EF13F0EAEF13F055
:1027C000978497B4E6EF13F0E8EF13F0E1EF13F01E
:1027D000F2EF13F0978497B4F0EF13F0F2EF13F0E9
:1027E000EBEF13F012005EA0F8EF13F0FAEF13F026
:1027F00004EF14F013C00AF014C00BF011C00CF079
:1028000012C00DF00BEC18F016BE09EF14F00BEF30
:1028100014F011EF14F015C01AF016C01BF015EFEC
:1028200014F0000E1B6E000E1A6E000E196E000ED4
:10283000186E27EF14F0000E026E200E016E11C00C
:1028400003F012C004F0CAEC12F0184A192A1A5008
:10285000185C1950800A176E1B50800A1758D8A0B0
:1028600034EF14F036EF14F01BEF14F05EB03BEFD2
:1028700014F03DEF14F047EF14F013C00AF014C049
:102880000BF011C00CF012C00DF00BEC18F013C0DF
:1028900001F014C002F04FEC18F01A500124116E30
:1028A0001B500220126E1200036E8B908B928B9441
:1028B0008B968B988B9E03C002F0000E906E070ED5
:1028C000016E7D0EE82EFED7012EFCD700F00338F6
:1028D0000F0B036E03500F0B036E03508009036E42
:1028E00003C090FF070E016E7D0EE82EFED7012E6D
:1028F000FCD700F003500F0B036E03C090FF070ED0
:10290000016E7D0EE82EFED7012EFCD700F0000EE2
:10291000906E070E016E7D0EE82EFED7012EFCD7BD
:1029200000F002C003F003500F0B036E0350800948
:10293000036E03C090FF070E016E7D0EE82EFED7DA
:10294000012EFCD700F003500F0B036E03C090FF65
:10295000070E016E7D0EE82EFED7012EFCD700F08B
:102960001200036E8B908B928B948B968B988B9E20
:1029700003C002F0100E906E070E016E7D0EE82E61
:10298000FED7012EFCD700F003380F0B036E035067
:102990000F0B036E03509009036E03C090FF070EE8
:1029A000016E7D0EE82EFED7012EFCD700F00350FD
:1029B0001F0B036E03C090FF070E016E7D0EE82E05
:1029C000FED7012EFCD700F0100E906E070E016EA0
:1029D0007D0EE82EFED7012EFCD700F002C003F0DA
:1029E00003500F0B036E03509009036E03C090FF5A
:1029F000070E016E7D0EE82EFED7012EFCD700F0EB
:102A000003501F0B036E03C090FF070E016E7D0E77
:102A1000E82EFED7012EFCD700F01200000E066E45
:102A200002BE17EF15F015EF15F01DEF15F0016C54
:102A3000021ED8B0022A010E066E04BE24EF15F065
:102A400022EF15F028EF15F0036C041ED8B0042A0D
:102A500003500410D8B42FEF15F031EF15F055EFF7
:102A600015F0010E056E39EF15F0D89003360436D7
:102A7000052A04AE3EEF15F040EF15F035EF15F0E6
:102A80000350015C04500258D8A049EF15F04BEFF9
:102A900015F04FEF15F00350015E0450025AD89024
:102AA00004320332052E40EF15F00650D8B45BEF28
:102AB00015F05DEF15F061EF15F0016C021ED8B056
:102AC000022A01C001F002C002F01200000E096EDD
:102AD000000E0A6E000E0B6E000E0C6E05500610F6
:102AE00007100810D8B477EF15F079EF15F0AFEFB5
:102AF00015F0010E0D6E83EF15F0D89005360636F1
:102B0000073608360D2A08AE88EF15F08AEF15F063
:102B10007DEF15F0D89009360A360B360C36055085
:102B2000015C065002580750035808500458D8A0BA
:102B30009CEF15F09EEF15F0A7EF15F00550015E24
:102B40000650025A0750035A0850045A0980D89078
:102B500008320732063205320D2E8AEF15F009C011
:102B600001F00AC002F00BC003F00CC004F0120028
:102B7000000E016E680ECBEC10F00A6E0AAEC3EFC9
:102B800015F0C5EF15F0E2EF15F0000E016E0A50DA
:102B90007F0B026E680E91EC13F0000E096E000EB2
:102BA000086EC80E00D0E82EFDD7084A092AF40E98
:102BB000085C010E0958D8A0E0EF15F0E2EF15F01F
:102BC000D1EF15F0020E016E680ECBEC10F00B6E1B
:102BD0000BACEDEF15F0EFEF15F0F7EF15F0020E7F
:102BE000016E0B50BF0B026E680E91EC13F01200D9
:102BF0000C6E3C0E0C60FFEF15F001EF16F02CEFA1
:102C000016F00CC001F0026A000E046E0A0E036E8C
:102C10000EEC15F001C009F002C00AF00CC001F082
:102C2000026A000E046E0A0E036E2FEC13F00150C0
:102C3000100DF35009240C6E000E016E680ECBECE3
:102C400010F00B6E800E0B16000E016E0B500C1068
:102C5000026E680E91EC13F012000C6E180E0C60F0
:102C600034EF16F036EF16F061EF16F00CC001F0FD
:102C7000026A000E046E0A0E036E0EEC15F001C01F
:102C800009F002C00AF00CC001F0026A000E046EE6
:102C90000A0E036E2FEC13F00150100DF3500924AF
:102CA0000C6E020E016E680ECBEC10F00B6E400E37
:102CB0000B16020E016E0B500C10026E680E91EC9A
:102CC00013F012000C6E180E0C6069EF16F06BEF2B
:102CD00016F096EF16F00CC001F0026A000E046EBA
:102CE0000A0E036E0EEC15F001C009F002C00AF0E6
:102CF0000CC001F0026A000E046E0A0E036E2FEC87
:102D000013F00150100DF35009240C6E090E016EE2
:102D1000680ECBEC10F00B6E400E0B16090E016E18
:102D20000B500C10026E680E91EC13F012000B6E3B
:102D30000B50D8B49EEF16F0A0EF16F0CAEF16F0C5
:102D40000D0E0B60A6EF16F0A8EF16F0CAEF16F006
:102D50000BC001F0026A000E046E0A0E036E0EEC48
:102D600015F001C009F002C00AF00BC001F0026AC0
:102D7000000E046E0A0E036E2FEC13F00150100DBE
:102D8000F35009240B6E050E016E0BC002F0680EA5
:102D900091EC13F012000B6E0B50D8B4D2EF16F07A
:102DA000D4EF16F0FEEF16F0200E0B60DAEF16F0FF
:102DB000DCEF16F0FEEF16F00BC001F0026A000E19
:102DC000046E0A0E036E0EEC15F001C009F002C08D
:102DD0000AF00BC001F0026A000E046E0A0E036EC8
:102DE0002FEC13F00150100DF35009240B6E040E5C
:102DF000016E0BC002F0680E91EC13F0120052C08D
:102E000056F053C057F0000E0001AD6F000EAC6FCE
:102E10001DEF17F050C03CF051C03DF0560E3E6E15
:102E2000000E3F6E54C040F055C041F0B1EC0EF0C2
:102E30003C500001AC273D50AD2356C0F6FF57C0B3
:102E4000F7FF000EF86E0800F5500009D8A42BEF2C
:102E500017F02DEF17F00AEF17F0ACC050F0ADC02F
:102E600051F012000B6E640E0B6039EF17F03BEF60
:102E700017F05DEF17F00BC001F0026A000E046E50
:102E80000A0E036E0EEC15F001C009F002C00AF044
:102E90000BC001F0026A000E046E0A0E036E2FECE6
:102EA00013F00150100DF35009240B6E060E016E45
:102EB0000BC002F0680E91EC13F012000B6E3C0E8A
:102EC0000B6065EF17F067EF17F089EF17F00BC095
:102ED00001F0026A000E046E0A0E036E0EEC15F08D
:102EE00001C009F002C00AF00BC001F0026A000E36
:102EF000046E0A0E036E2FEC13F00150100DF35008
:102F000009240B6E010E016E0BC002F0680E91ECED
:102F100013F012000B6E3C0E0B6091EF17F093EF65
:102F200017F0B5EF17F00BC001F0026A000E046E47
:102F30000A0E036E0EEC15F001C009F002C00AF093
:102F40000BC001F0026A000E046E0A0E036E2FEC35
:102F500013F00150100DF35009240B6E070E016E93
:102F60000BC002F0680E91EC13F012000B6E3C0ED9
:102F70000B60BDEF17F0BFEF17F0E1EF17F00BC0DC
:102F800001F0026A000E046E0A0E036E0EEC15F0DC
:102F900001C009F002C00AF00BC001F0026A000E85
:102FA000046E0A0E036E2FEC13F00150100DF35057
:102FB00009240B6E080E016E0BC002F0680E91EC36
:102FC00013F012005C0E0001626F000E636F58C0B8
:102FD00064F059C065F0000E676F000E666F000E5A
:102FE000696F000E686F640E506E000E516E5AC00D
:102FF00052F05BC053F0620E546E000E556EFFEC43
:1030000016F0000166515824D96E67515920DA6EC6
:10301000000EDF6E1200000E106E000E0F6E1CEF21
:1030200018F00EC001F0026A0CC003F00DC004F0ED
:10303000CAEC12F00F4A102A0F500A24D96E105011
:103040000B20DA6EDF500E6E0E50D8A42AEF18F067
:103050002CEF18F011EF18F01200000E606E000E49
:103060000F015F6F608E608060B039EF18F03BEF4A
:1030700018F034EF18F0609E63CF05F064CF06F0CF
:10308000060E076ED89006320532072E42EF18F072
:1030900005C001F006C002F0036A046A120001C014
:1030A00003F002C004F057EF18F0014A022A01C0F1
:1030B000D9FF02C0DAFFDF50D8A461EF18F063EF48
:1030C00018F055EF18F00350015C016E04500258DF
:1030D000026E1200046E0450D8B471EF18F073EF52
:1030E00018F082EF18F0080E046079EF18F07BEF0B
:1030F00018F082EF18F0030E016E04C002F0680EA3
:1031000091EC13F012008A868A88130E0E01B76FB5
:10311000140EB86F100EFB6F0F0EFA6F0C0E936E3D
:103120009650F00B0809966E969E969C968A120011
:10313000000E016E680ECBEC10F0096E09C008F0AD
:103140000F0E081609380F0B070B0A0DF350082451
:103150001200020E016E680ECBEC10F0096E09C071
:1031600008F00F0E081609380F0B030B0A0DF35069
:1031700008241200070E016E680ECBEC10F0096EE9
:1031800009C008F00F0E081609380F0B070B0A0DBF
:10319000F35008241200090E016E680ECBEC10F0FB
:1031A000096E09C008F00F0E081609380F0B030B43
:1031B0000A0DF35008241200330E54EC14F0320EB2
:1031C00054EC14F02C0E54EC14F00C0E54EC14F0DF
:1031D000010E54EC14F01200060E016E680ECBECDA
:1031E00010F0096E09C008F00F0E081609380F0B11
:1031F0000A0DF35008241200050E016E680ECBEC88
:1032000010F0096E09C008F00F0E081609380F0BF0
:103210000A0DF35008241200010E016E680ECBEC6B
:1032200010F0096E09C008F00F0E081609380F0BD0
:103230000A0DF35008241200040E016E680ECBEC48
:1032400010F0096E09C008F00F0E081609380F0BB0
:103250000A0DF35008241200080E016E680ECBEC24
:1032600010F0096E09C008F00F0E081609380F0B90
:103270000A0DF35008241200818E819C00EEA8F004
:103280002A0EEE6AE806FDE15F6A5E6A000191EFD0
:1032900007F0030E016E680ECBEC10F0086E0850BC
:0E32A00012008880000E0F01216F1200120034
:020000040020DA
:10000000FF0FFF0FFF0FFF0FFF0FFF0FFF0FFF0F80
:020000040030CA
:0C000000FFFFFFFF9FFFFFFFFFFFFFFF60
:00000001FF
