:020000040000FA
:04000000B1EFFFF06D
:020000040001F9
:10FF6200818E819C0001B6EFFFF0000E886E000EBC
:10FF72008D6E8968000E0F01196F8EA0C3EFFFF01E
:10FF8200C5EFFFF0D1EFFFF08380020E026E450E47
:10FF9200016EAA0EE82EFED7012EFCD7022EFAD74A
:10FFA2008EA0D6EFFFF0D8EFFFF0E4EFFFF08390E2
:10FFB200020E026E450E016EAA0EE82EFED7012E2B
:10FFC200FCD7022EFAD78EB0E9EFFFF0EBEFFFF08D
:10FFD200F0EFFFF08382530EE82EFED700F08EB0D2
:10FFE200F5EFFFF0F7EFFFF0BEEFFFF08392530E55
:0EFFF200E82EFED700F0BEEFFFF000EF00F0AB
:020000040020DA
:10000000FF0FFF0FFF0FFF0FFF0FFF0FFF0FFF0F80
:020000040030CA
:0C000000FFFFFFFF9FFFFFFFFFFFFFFF60
:00000001FF
