:020000040000FA
:04000000C7EF0EF048
:100F000000256C75000011EC0FF001EC0FF080EC87
:100F10000EF0FD0E01240001646FFF0E0220656FCC
:100F2000FF0E0320666FFF0E0420676F64C001F0A0
:100F300065C002F066C003F067C004F0880E056E5D
:100F4000130E066E000E076E000E086EF1EC0DF02B
:100F500001C00DF002C00EF003C00FF004C010F08D
:100F6000FF0E116E030E126E000E136E000E146E45
:100F70009FEC0DF00DC0A3F00EC0A4F00FC0A5F0C3
:100F800010C0A6F0A3C001F0A4C002F0A5C003F0F9
:100F9000A6C004F0E80E056E800E066E000E076E09
:100FA000000E086EF1EC0DF001C00DF002C00EF065
:100FB00003C00FF004C010F00001A3518808116EA7
:100FC000130EA455126E000EA555136E000EA655F5
:100FD000146E9FEC0DF00DC060F00EC061F00FC0FC
:100FE00062F010C063F0000E0001A96F000EA86F40
:100FF0009C0EA825D96E000EA921DA6E000EDF6EB8
:10100000A84BA92BA9BF0EEF08F0A95109E1070EC3
:10101000A85DD8A00EEF08F010EF08F0F8EF07F089
:101020009C0E586E000E596E010E5A6E0F0E5B6EBE
:1010300060C05CF061C05DF062C05EF063C05FF0F4
:1010400057EC0EF00001635162110BE1E80E605D98
:10105000030E6159D8A02FEF08F031EF08F040EFF0
:1010600008F063510DE1410E605D420E61590F0EB3
:101070006259D8A03EEF08F040EF08F066EF08F0A4
:101080004F0E42EC0DF0750E42EC0DF0740E42EC7A
:101090000DF0200E42EC0DF06F0E42EC0DF0660EDE
:1010A00042EC0DF0200E42EC0DF0420E42EC0DF041
:1010B0006F0E42EC0DF0750E42EC0DF06E0E42EC30
:1010C0000DF0640E42EC0DF0A7EF08F0520E42EC6A
:1010D0000DF03D0E42EC0DF0200E42EC0DF0000E36
:1010E0000001AB6F000EAA6F9C0EAA25D96E000EF0
:1010F000AB21DA6EDF50A76FA751D8B482EF08F0AA
:1011000084EF08F098EF08F0A75142EC0DF00001D1
:10111000AA4BAB2BABBF96EF08F0AB5109E1070E22
:10112000AA5DD8A096EF08F098EF08F074EF08F0E9
:10113000200E42EC0DF04F0E42EC0DF0680E42EC2A
:101140000DF06D0E42EC0DF0730E42EC0DF00B0E37
:1011500000019B6F260E9A6F5D0EE82EFED79A2F28
:10116000FCD79B2FFAD700D0010EE5EC0CF087EFEF
:1011700007F000EF00F03EC0D9FF3FC0DAFFDECF3E
:10118000F6FFDDCFF7FF0800F550250AD8A4CBEF16
:1011900008F0CDEF08F0B1EF09F03EC0D9FF3FC035
:1011A000DAFFDE2A000EDD22000E00016B6F000E5A
:1011B0006A6F6AC06EF06BC06FF06C696D693EC09B
:1011C000D9FF3FC0DAFFDECFF6FFDDCFF7FF080023
:1011D000F550750AD8A4EFEF08F0F1EF08F032EF00
:1011E00009F03EC0D9FF3FC0DAFFDE2A000EDD2243
:1011F00040C0D9FF41C0DAFFDFCF42F0020EDE2649
:10120000DFCF43F0000EDD2242C0D9FF43C0DAFF3A
:10121000DECF44F0DDCF45F044C048F045C049F092
:101220004A6A4B6A4C6A4D6A4E6A4F6A3CC01CF06F
:101230003DC01DF048C01EF049C01FF04AC020F05C
:101240004BC021F04CC022F04DC023F04EC024F022
:101250004FC025F0CDEC09F01CC03CF01DC03DF0A6
:10126000CCEF09F03EC0D9FF3FC0DAFFDECF01F07E
:10127000DDCF02F0020E036E0F0E046E000E066E3E
:10128000020E056E46EC0BF001500210D8A44BEF95
:1012900009F04DEF09F07BEF09F0020E3EC0D9FFD7
:1012A0003FC0DAFFDE26000EDD2240C0D9FF41C07C
:1012B000DAFFDFCF42F0040EDE26DFCF43F0000E70
:1012C000DD2242C0D9FF43C0DAFFDECF44F0DECFDB
:1012D00045F0DECF46F0DECF47F04450486E455033
:1012E000496E46504A6E47504B6E4C6A4D6A4E6A84
:1012F0004F6A16EF09F03EC0D9FF3FC0DAFFDECFDC
:10130000F6FFDDCFF7FF0800F550250AD8A48BEFD4
:1013100009F08DEF09F0A4EF09F03EC0D9FF3FC0FE
:10132000DAFFDE2A000EDD22000E026E250E016EAF
:101330003CC003F03DC004F01DEC0CF0000E3D6E0F
:10134000010E3C6ECCEF09F03EC0D9FF3FC0DAFF82
:10135000DE2A000EDD22000E3D6E000E3C6ECCEF4C
:1013600009F03EC0D9FF3FC0DAFFDECFF6FFDDCF88
:10137000F7FF0800F550016E026A3CC003F03DC063
:1013800004F01DEC0CF03EC0D9FF3FC0DAFFDE2AAE
:10139000000EDD229EEF09F0120000016DBFD3EFB9
:1013A00009F0D5EF09F0D6EF09F06E936DBFE3EFCA
:1013B00009F06D5106E16C05D8B0E1EF09F0E3EFFB
:1013C00009F0E9EF09F0000E2F6E010E2E6EEDEF21
:1013D00009F06CC02EF06DC02FF06AC030F06BC009
:1013E00031F01EC032F01FC033F020C034F021C0F5
:1013F00035F022C036F023C037F024C038F025C0C5
:1014000039F0000E3B6E1F0E3A6E000E8F6F7FEFAD
:101410000AF03A06D8A03B06700E3A24D96E000EA8
:101420003B20DA6E32C001F033C002F034C003F06A
:1014300035C004F036C005F037C006F038C007F0FC
:1014400039C008F00A0E096E000E0A6E000E0B6E0F
:10145000000E0C6E000E0D6E000E0E6E000E0F6E66
:10146000000E106EB5EC0BF001C026F002C027F0A4
:1014700003C028F004C029F005C02AF006C02BF0F4
:1014800007C02CF008C02DF02650300FDF6E2E065E
:10149000D8A02F063006D8A0310632C001F033C0E4
:1014A00002F034C003F035C004F036C005F037C098
:1014B00006F038C007F039C008F00A0E096E000EB9
:1014C0000A6E000E0B6E000E0C6E000E0D6E000EFE
:1014D0000E6E000E0F6E000E106ECEEC0AF001C004
:1014E00032F002C033F003C034F004C035F005C060
:1014F00036F006C037F007C038F008C039F03A506F
:101500003B10D8B486EF0AF088EF0AF0B9EF0AF082
:10151000325033103410351036103710381039105F
:10152000D8A495EF0AF097EF0AF009EF0AF02FBE62
:10153000A4EF0AF02F5006E12E04D8B0A2EF0AF073
:10154000A4EF0AF009EF0AF031BEAFEF0AF0315014
:1015500008E13004D8A0AFEF0AF0B1EF0AF0B9EF1C
:101560000AF000016EB3B7EF0AF0B9EF0AF009EF25
:101570000AF01CC011F01DC012F0700E3A24136E58
:10158000000E3B20146E30C015F031C016F082EC16
:101590000CF011C01CF012C01DF0120020EE11F072
:1015A000070EDE6AE806FDE209500A100B100C1067
:1015B0000D100E100F101010D8B4E1EF0AF0E3EF89
:1015C0000AF035EF0BF0010E196EF1EF0AF0D8902A
:1015D00009360A360B360C360D360E360F361036F7
:1015E000192A10AEF6EF0AF0F8EF0AF0E7EF0AF06A
:1015F000D89011361236133614361536163617367D
:1016000018360950015C0A5002580B5003580C5010
:1016100004580D5005580E5006580F5007581050DA
:101620000858D8A016EF0BF018EF0BF029EF0BF0CD
:101630000950015E0A50025A0B50035A0C50045ACA
:101640000D50055A0E50065A0F50075A1050085A9E
:101650001180D89010320F320E320D320C320B3214
:101660000A320932192EF8EF0AF011C001F012C047
:1016700002F013C003F014C004F015C005F016C04A
:1016800006F017C007F018C008F0120001C008F0FB
:1016900002C009F003C00AF004C00BF00506D8A090
:1016A0000606052806E10628D8A459EF0BF05BEFE3
:1016B0000BF068EF0BF0000E026E000E016EB4EF3F
:1016C0000BF0084A092A0A4A0B2A0506D8A0060682
:1016D00008C0F6FF09C0F7FF0800F5500009D8B4AC
:1016E00074EF0BF076EF0BF0A2EF0BF00AC0F6FFF1
:1016F0000BC0F7FF0800F5500009D8B482EF0BF0DB
:1017000084EF0BF0A2EF0BF005500610D8B48BEF6E
:101710000BF08DEF0BF0A2EF0BF008C0F6FF09C045
:10172000F7FF0800F5CF07F00AC0F6FF0BC0F7FF80
:101730000800F5500718D8B4A0EF0BF0A2EF0BF09B
:1017400061EF0BF008C0F6FF09C0F7FF0800F5CF06
:1017500007F00AC0F6FF0BC0F7FF0800F550075C62
:10176000016E026AD8A00206120009500A100B107E
:101770000C100D100E100F101010D8B4C2EF0BF09B
:10178000C4EF0BF00CEF0CF0010E116ED2EF0BF06A
:10179000D89009360A360B360C360D360E360F3613
:1017A0001036112A10AED7EF0BF0D9EF0BF0C8EFBF
:1017B0000BF00950015C0A5002580B5003580C50B2
:1017C00004580D5005580E5006580F500758105029
:1017D0000858D8A0EEEF0BF0F0EF0BF000EF0CF094
:1017E0000950015E0A50025A0B50035A0C50045A19
:1017F0000D50055A0E50065A0F50075A1050085AED
:10180000D89010320F320E320D320C320B320A32B7
:101810000932112ED9EF0BF001C001F002C002F025
:1018200003C003F004C004F005C005F006C006F0D4
:1018300007C007F008C008F0120003500410D8B425
:1018400024EF0CF026EF0CF02FEF0CF003500410F7
:10185000D8A42DEF0CF02FEF0CF034EF0CF001506A
:1018600018EC0FF081EF0CF020EE04F00350D926B5
:101870000450DA22DE50DE10D8B441EF0CF043EF12
:101880000CF05EEF0CF020EE04F00350D92604506B
:10189000DA2210EE02F00350E1260450E222DE507C
:1018A000E65CE650800A096EDE50800A0958D8B01E
:1018B0005CEF0CF05EEF0CF081EF0CF020EE02F02C
:1018C0000350D9260450DA22DECF05F0DDCF06F032
:1018D00003C0D9FF04C0DAFFDECF07F0DDCF08F088
:1018E00005500724D96E06500820DA6E01C0DFFFCC
:1018F00020EE02F00350D9260450DA22DE2A000E30
:10190000DD22120000016EA188EF0CF08AEF0CF0CE
:1019100094EF0CF013C00AF014C00BF011C00CF0DF
:1019200012C00DF0A5EC0EF016BE99EF0CF09BEF77
:101930000CF0A1EF0CF015C01AF016C01BF0A5EFCB
:101940000CF0000E1B6E000E1A6E000E196E000ECB
:10195000186EB7EF0CF0000E026E200E016E11C073
:1019600003F012C004F01DEC0CF0184A192A1A50AA
:10197000185C1950800A176E1B50800A1758D8A09F
:10198000C4EF0CF0C6EF0CF0ABEF0CF000016EB141
:10199000CCEF0CF0CEEF0CF0D8EF0CF013C00AF047
:1019A00014C00BF011C00CF012C00DF0A5EC0EF03D
:1019B00013C001F014C002F0E6EC0EF01A5001243E
:1019C000116E1B500220126E1200036E8A908A92D2
:1019D0008A948A968A988A9E03C002F0000E8F6EBF
:1019E000070E016E7D0EE82EFED7012EFCD700F00B
:1019F00003380F0B036E03500F0B036E0350800967
:101A0000036E03C08FFF070E016E7D0EE82EFED71A
:101A1000012EFCD700F003500F0B036E03C08FFFA5
:101A2000070E016E7D0EE82EFED7012EFCD700F0CA
:101A3000000E8F6E070E016E7D0EE82EFED7012E72
:101A4000FCD700F002C003F003500F0B036E0350ED
:101A50008009036E03C08FFF070E016E7D0EE82E16
:101A6000FED7012EFCD700F003500F0B036E03C00E
:101A70008FFF070E016E7D0EE82EFED7012EFCD7DC
:101A800000F01200036E8A908A928A948A968A984D
:101A90008A9E03C002F0100E8F6E070E016E7D0E3F
:101AA000E82EFED7012EFCD700F003380F0B036E93
:101AB00003500F0B036E03509009036E03C08FFF9A
:101AC000070E016E7D0EE82EFED7012EFCD700F02A
:101AD00003501F0B036E03C08FFF070E016E7D0EB8
:101AE000E82EFED7012EFCD700F0100E8F6E070EE9
:101AF000016E7D0EE82EFED7012EFCD700F002C04D
:101B000003F003500F0B036E03509009036E03C0E4
:101B10008FFF070E016E7D0EE82EFED7012EFCD73B
:101B200000F003501F0B036E03C08FFF070E016E02
:101B30007D0EE82EFED7012EFCD700F01200000E1D
:101B4000156E000E166E000E176E000E186E1150F8
:101B5000121013101410D8B4B0EF0DF0B2EF0DF056
:101B6000E8EF0DF0010E196EBCEF0DF0D8901136B4
:101B7000123613361436192A14AEC1EF0DF0C3EF26
:101B80000DF0B6EF0DF0D89015361636173618361C
:101B900011500D5C12500E5813500F58145010581D
:101BA000D8A0D5EF0DF0D7EF0DF0E0EF0DF011500C
:101BB0000D5E12500E5A13500F5A1450105A1580C1
:101BC000D8901432133212321132192EC3EF0DF0A5
:101BD00015C00DF016C00EF017C00FF018C010F0B1
:101BE0001200000E096E000E0A6E000E0B6E000E43
:101BF0000C6E01A0FEEF0DF000EF0EF008EF0EF0FE
:101C00000550092606500A2207500B2208500C22C4
:101C1000D8900536063607360836D8900432033297
:101C2000023201320150021003100410D8A41BEF3D
:101C30000EF01DEF0EF0F9EF0DF009C001F00AC033
:101C400002F00BC003F00CC004F0120052C056F0BA
:101C500053C057F0000E0001696F000E686F44EF2B
:101C60000EF050C03CF051C03DF0560E3E6E000EDE
:101C70003F6E54C040F055C041F0BBEC08F03C5002
:101C8000000168273D50692356C0F6FF57C0F7FF93
:101C90000800F5500009D8A450EF0EF052EF0EF0F6
:101CA00031EF0EF068C050F069C051F012005C0EC8
:101CB0000001926F000E936F58C094F059C095F0D8
:101CC000000E976F000E966F000E996F000E986FC2
:101CD000940E506E000E516E5AC052F05BC053F01D
:101CE000920E546E000E556E26EC0EF000019651C9
:101CF0005824D96E97515920DA6E000EDF6E12000B
:101D0000608E6080070E056E7D0EE82EFED7052ED4
:101D1000FCD700F060B08FEF0EF091EF0EF08AEF7D
:101D20000EF0609E63CF05F064CF06F0060E076EDE
:101D3000D89006320532072E98EF0EF005C001F05C
:101D400006C002F0036A046A1200000E106E000E54
:101D50000F6EB6EF0EF00EC001F0026A0CC003F079
:101D60000DC004F01DEC0CF00F4A102A0F500A248D
:101D7000D96E10500B20DA6EDF500E6E0E50D8A4C4
:101D8000C4EF0EF0C6EF0EF0ABEF0EF01200818E36
:101D9000819C2A0EF66E1E0EF76E000EF86E00EE97
:101DA000ACF010EE06F00900F5CFEEFFE550E15083
:101DB000FAE100EE60F0300EEE6AE806FDE1000E9A
:101DC000F86E0F0EF76E000183EF07F001C003F00D
:101DD00002C004F0EEEF0EF0014A022A01C0D9FF62
:101DE00002C0DAFFDF50D8A4F8EF0EF0FAEF0EF0E1
:101DF000ECEF0EF00350015C016E04500258026ECD
:101E00001200330EE5EC0CF0320EE5EC0CF02C0E6B
:101E1000E5EC0CF00C0EE5EC0CF0010EE5EC0CF032
:101E200012008880000E606E1200E880000005003D
:021E300012009E
:020000040020DA
:10000000FF0FFF0FFF0FFF0FFF0FFF0FFF0FFF0F80
:020000040030CA
:0C000000FFFFFFFF9FFFFFFFFFFFFFFF60
:00000001FF
