:020000040000FA
:0400000088EFEDF0A8
:020000040001F9
:10DADC00010001008880000E0F01216F120005501B
:10DAEC000702F3CF09F0F4CF0AF005500802F35007
:10DAFC000A2606500702F3500A2609C005F00AC090
:10DB0C0006F01200818E819CDC0EF66EDA0EF76E3A
:10DB1C00010EF86E00EEDCF010EE04F00900F5CF0B
:10DB2C00EEFFE550E150FAE100EEBCF0200EEE6A9B
:10DB3C00E806FDE1000186EFF9F0000ECE6E000E56
:10DB4C00CD6ECF88CF8ACF94CF82D250F00B010903
:10DB5C00D26E0E01CE91CF80120EAF6F000EAB6E57
:10DB6C00000EAA6EAC50F00B0509AC6EAC8EC881E1
:10DB7C00F28CF28E1200000E606E608E608060B0CF
:10DB8C00CAEFEDF0CCEFEDF0C5EFEDF0609E63CF9A
:10DB9C0005F064CF06F0060E076ED89006320532FB
:10DBAC00072ED3EFEDF005C001F006C002F0036ABA
:10DBBC00046A120002BEEDEFEDF0025006E1010422
:10DBCC00D8B0EBEFEDF0EDEFEDF0FBEFEDF001C0C9
:10DBDC0003F002C004F0031E041E034A042A03C00F
:10DBEC0001F004C002F0FFEFEDF001C001F002C043
:10DBFC0002F01200000E0001681B000E691B000EE3
:10DC0C006A1B800E6B1B64C053F065C054F066C079
:10DC1C0055F067C056F068C057F069C058F06AC03C
:10DC2C0059F06BC05AF025ECF7F053C064F054C0B7
:10DC3C0065F055C066F056C067F012001250131014
:10DC4C0014101510D8B42DEFEEF02FEFEEF05FEFAF
:10DC5C00EEF0010E166E39EFEEF0D8901236133648
:10DC6C0014361536162A15AE3EEFEEF040EFEEF0F8
:10DC7C0033EFEEF012500E5C13500F581450105836
:10DC8C0015501158D8A04DEFEEF04FEFEEF057EFC6
:10DC9C00EEF012500E5E13500F5A1450105A1550CD
:10DCAC00115AD8901532143213321232162E40EF0C
:10DCBC00EEF00EC00EF00FC00FF010C010F011C03F
:10DCCC0011F01200000E096E000E0A6E000E0B6EA3
:10DCDC00000E0C6E0550061007100810D8B479EF22
:10DCEC00EEF07BEFEEF0B1EFEEF0010E0D6E85EF86
:10DCFC00EEF0D89005360636073608360D2A08AEF3
:10DD0C008AEFEEF08CEFEEF07FEFEEF0D890093664
:10DD1C000A360B360C360550015C0650025807507B
:10DD2C00035808500458D8A09EEFEEF0A0EFEEF088
:10DD3C00A9EFEEF00550015E0650025A0750035A47
:10DD4C000850045A0980D89008320732063205323E
:10DD5C000D2E8CEFEEF009C001F00AC002F00BC0E2
:10DD6C0003F00CC004F01200000E0001736F6FBFC3
:10DD7C00C4EFEEF0C2EFEEF0CAEFEEF06E6D6F1F77
:10DD8C00D8B06F2B010E736F71BFD1EFEEF0CFEFE8
:10DD9C00EEF0D5EFEEF0706D711FD8B0712B7051A5
:10DDAC007111D8B4DCEFEEF0DEEFEEF002EFEFF035
:10DDBC00010E726FE6EFEEF0D89070377137722B60
:10DDCC0071AFEBEFEEF0EDEFEEF0E2EFEEF0705145
:10DDDC006E5D71516F59D8A0F6EFEEF0F8EFEEF0E2
:10DDEC00FCEFEEF070516E5F71516F5BD890713338
:10DDFC007033722FEDEFEEF07351D8B408EFEFF0F3
:10DE0C000AEFEFF00EEFEFF06E6D6F1FD8B06F2BC7
:10DE1C006EC06EF06FC06FF01200000E106E0EBE72
:10DE2C001CEFEFF01AEFEFF022EFEFF00D6C0E1E7F
:10DE3C00D8B00E2A010E106E0CBE29EFEFF027EFB2
:10DE4C00EFF02FEFEFF00B6C0C1ED8B00C2A010E7C
:10DE5C00101A000E126E000E116E0D500E10D8B46A
:10DE6C003AEFEFF03CEFEFF064EFEFF0010E0F6ED6
:10DE7C0044EFEFF0D8900D360E360F2A0EAE49EF68
:10DE8C00EFF04BEFEFF040EFEFF0D8901136123689
:10DE9C000D500B5C0E500C58D8A057EFEFF059EF0B
:10DEAC00EFF05EEFEFF00D500B5E0E500C5A118040
:10DEBC00D8900E320D320F2E4BEFEFF01050D8B42D
:10DECC006AEFEFF06CEFEFF070EFEFF0116C121EE9
:10DEDC00D8B0122A11C00BF012C00CF012000104C1
:10DEEC000210D8A47CEFEFF07EEFEFF0BEEFEFF076
:10DEFC00A0EFEFF00C0E906E030E036E980EE82E52
:10DF0C00FED7032EFCD70001DC4BDD2BE6EFEFF048
:10DF1C00090E906E82EFEFF0030E906E82EFEFF031
:10DF2C00060E906E82EFEFF0000EDD6F010EDC6FCF
:10DF3C00E6EFEFF00001DC51036E046A0450000AB6
:10DF4C00D8B4ABEFEFF09AEFEFF00350010AD8B46E
:10DF5C0080EFEFF0030AD8B48EEFEFF0010AD8B4DB
:10DF6C0092EFEFF0070AD8B496EFEFF09AEFEFF0DC
:10DF7C00020E01180210D8A4C6EFEFF0C8EFEFF0B4
:10DF8C00E6EFEFF00001DC51036E046A0450000A66
:10DF9C00D8B4D3EFEFF09AEFEFF00350010AD8B4F6
:10DFAC0080EFEFF0030AD8B496EFEFF0010AD8B483
:10DFBC0092EFEFF0070AD8B48EEFEFF09AEFEFF094
:10DFCC00120001040210D8A4EEEFEFF0F0EFEFF026
:10DFDC0030EFF0F012EFF0F00C0E8E6E030E036EBD
:10DFEC00980EE82EFED7032EFCD70001DE4BDF2B5C
:10DFFC0058EFF0F0090E8E6EF4EFEFF0030E8E6E0C
:10E00C00F4EFEFF0060E8E6EF4EFEFF0000EDF6F14
:10E01C00010EDE6F58EFF0F00001DE51036E046A62
:10E02C000450000AD8B41DEFF0F00CEFF0F00350E0
:10E03C00010AD8B4F2EFEFF0030AD8B400EFF0F015
:10E04C00010AD8B404EFF0F0070AD8B408EFF0F0E6
:10E05C000CEFF0F0020E01180210D8A438EFF0F01B
:10E06C003AEFF0F058EFF0F00001DE51036E046A65
:10E07C000450000AD8B445EFF0F00CEFF0F0035068
:10E08C00010AD8B4F2EFEFF0030AD8B408EFF0F0BD
:10E09C00010AD8B404EFF0F0070AD8B400EFF0F09E
:10E0AC000CEFF0F01200000E00016C15746F000EF6
:10E0BC006D15756F800E6E15766F7F0E6F15776F01
:10E0CC007451751176117711D8A46FEFF0F071EFD0
:10E0DC00F0F079EFF0F0000E6C6F000E6D6F000E2B
:10E0EC006E6F000E6F6F000E7015746F000E711551
:10E0FC00756F800E7215766F7F0E7315776F745176
:10E10C00751176117711D8A48EEFF0F090EFF0F036
:10E11C0098EFF0F0000E706F000E716F000E726FC2
:10E12C00000E736F6FAF9DEFF0F09FEFF0F0A8EF64
:10E13C00F0F06C6D6D1FD8B06D2B6E1FD8B06E2BC0
:10E14C00800E6F5773AFADEFF0F0AFEFF0F0B8EFAC
:10E15C00F0F0706D711FD8B0712B721FD8B0722B8C
:10E16C00800E7357000E6C1B000E6D1B000E6E1B89
:10E17C00800E6F1B000E701B000E711B000E721BAD
:10E18C00800E731B70516C5D71516D5972516E59CB
:10E19C0073516F59D8B0D5EFF0F0D7EFF0F0DAEF4C
:10E1AC00F0F0D890DBEFF0F0D8801200000166356B
:10E1BC0067356D6F6D51D8A4E6EFF0F0E8EFF0F035
:10E1CC00F2EFF0F0000E646F000E656F000E666FDC
:10E1DC00000E676F5FEFF1F064C068F065C069F026
:10E1EC0066C06AF067C06BF0200E02EFF1F0D890B9
:10E1FC006B336A3369336833E82EFDEFF0F0685106
:10E20C006C6F668FFF0E6417FF0E6517FF0E661797
:10E21C00000E6717960E6D5F6DBF19EFF1F017EFDB
:10E22C00F1F02FEFF1F06D51800A970FD8B021EF7C
:10E23C00F1F023EFF1F025EFF1F0E8EFF0F0D890EA
:10E24C0067336633653364336D3F25EFF1F047EF89
:10E25C00F1F01F0E6D6535EFF1F037EFF1F03FEF98
:10E26C00F1F0E8EFF0F0D890643765376637673730
:10E27C006D076D51D8A445EFF1F047EFF1F039EF90
:10E28C00F1F06C51D8B44DEFF1F04FEFF1F057EFD6
:10E29C00F1F0671F661F651F646D000E6523662312
:10E2AC00672364C064F065C065F066C066F067C043
:10E2BC0067F012001B6E1B50D8B467EFF1F069EFDA
:10E2CC00F1F08BEFF1F016BE70EFF1F06EEFF1F0B4
:10E2DC008BEFF1F013C017F014C018F015C019F043
:10E2EC0016C01AF0171E181E191E1A1E172A000E19
:10E2FC00182219221A2217C01DF018C01EF019C0BE
:10E30C001FF01AC020F093EFF1F013C01DF014C0F1
:10E31C001EF015C01FF016C020F01350141015106D
:10E32C001610D8A49CEFF1F09EEFF1F0A8EFF1F0ED
:10E33C00000E136E000E146E000E156E000E166E8F
:10E34C0039EFF2F0960E1C6EB2EFF1F01C2AD89059
:10E35C0020321F321E321D32000E1D14176E000E9D
:10E36C001E14186E000E1F14196EFE0E20141A6E59
:10E37C001750181019101A10D8A4C7EFF1F0C9EFE4
:10E38C00F1F0ACEFF1F0D7EFF1F01C2A010E1D26E5
:10E39C00000E1E221F222022D89020321F321E3245
:10E3AC001D32000E1D14176E000E1E14186E000E7A
:10E3BC001F14196EFF0E20141A6E17501810191016
:10E3CC001A10D8A4ECEFF1F0EEEFF1F0CBEFF1F086
:10E3DC00F6EFF1F01C06D8901D361E361F3620368F
:10E3EC001FBEFBEFF1F0FDEFF1F005EFF2F0020EC6
:10E3FC001C6003EFF2F005EFF2F0F0EFF1F01CB05F
:10E40C000AEFF2F00CEFF2F00DEFF2F01F9ED89045
:10E41C001C321CC017F0186A196A1A6A17C01AF055
:10E42C00196A186A176A17501D1218501E121950C3
:10E43C001F121A5020121B50D8B427EFF2F029EFFC
:10E44C00F2F031EFF2F016BE30EFF2F02EEFF2F008
:10E45C0031EFF2F0208E1DC013F01EC014F01FC05F
:10E46C0015F020C016F01200000E00017B6F000E9C
:10E47C007A6F0E01D0A145EFF2F047EFF2F03FEFCB
:10E48C00F2F0D091AACFC4F0ABCFC5F00001C66BAF
:10E49C00C76B610EAA5CEA0EAB58D8A058EFF2F02D
:10E4AC005AEFF2F077EFF2F0000EBC6F000EBD6F7A
:10E4BC00000EBE6F000EBF6FBCC013F0BDC014F0D9
:10E4CC00BEC015F0BFC016F0000E60ECF1F013C02A
:10E4DC006EF014C06FF015C070F016C071F042EF02
:10E4EC00F3F00E01D0A17DEFF2F07FEFF2F077EFB9
:10E4FC00F2F0D091AACFC0F0ABCFC1F00001C26B4B
:10E50C00C36BC051C45DC151C559C251C659C35129
:10E51C00C759D8B094EFF2F096EFF2F01AEFF3F08F
:10E52C00C451C05D726FC551C159736FC651C25988
:10E53C00746FC751C359756FBCC013F0BDC014F0D4
:10E54C00BEC015F0BFC016F0000E60ECF1F013C0A9
:10E55C0057F014C058F015C059F016C05AF0000E00
:10E56C00256E000E266E000E276E410E286E72C0B0
:10E57C0013F073C014F074C015F075C016F0000ED3
:10E58C0060ECF1F013C021F014C022F015C023F0A0
:10E59C0016C024F010ECF5F021C03EF022C03FF084
:10E5AC0023C040F024C041F0000E3A6E240E3B6EA6
:10E5BC00740E3C6E490E3D6E43ECF3F03AC053F0D2
:10E5CC003BC054F03CC055F03DC056F025ECF7F084
:10E5DC0053C076F054C077F055C078F056C079F03F
:10E5EC00000E3E6E000E3F6E000E406E400E416EF1
:10E5FC0076C03AF077C03BF078C03CF079C03DF083
:10E60C0043ECF3F03AC064F03BC065F03CC066F0FC
:10E61C003DC067F0DCECF0F064C0BCF065C0BDF050
:10E62C0066C0BEF067C0BFF0000ECE6E000ECD6EA1
:10E63C0000017A4B7B2B7BBF2DEFF3F07B5109E173
:10E64C00050E7A5DD8A02DEFF3F02FEFF3F03FEF2E
:10E65C00F2F0BCC013F0BDC014F0BEC015F0BFC0CA
:10E66C0016F0000E60ECF1F013C06EF014C06FF0F9
:10E67C0015C070F016C071F012003D50800B4A6E40
:10E68C003D503D24516E3CAE4EEFF3F050EFF3F0A5
:10E69C0051EFF3F051805150D8B457EFF3F059EFDC
:10E6AC00F3F06EEFF3F05128D8A45FEFF3F061EFC5
:10E6BC00F3F069EFF3F0000E3A6E000E3B6E000EB5
:10E6CC003C6E000E3D6E3C8E000E3D6E76EFF3F010
:10E6DC00000E3A6E000E3B6E000E3C6E000E3D6E50
:10E6EC004150800B4A1A41504124526E40AE81EF8A
:10E6FC00F3F083EFF3F084EFF3F052805250D8B480
:10E70C008AEFF3F08CEFF3F0A1EFF3F05228D8A4DA
:10E71C0092EFF3F094EFF3F09CEFF3F0000E3E6EFB
:10E72C00000E3F6E000E406E000E416E408E000ECD
:10E73C00416EA9EFF3F0000E3E6E000E3F6E000E20
:10E74C00406E000E416E3E503F1040104110D8A458
:10E75C00B2EFF3F0B4EFF3F0CCEFF3F0000E3A6E4F
:10E76C00000E3B6E000E3C6E000E3D6E800E3C1299
:10E77C007F0E3D124A503D123AC03AF03BC03BF07E
:10E78C003CC03CF03DC03DF00FEFF5F05150D8A42B
:10E79C00D2EFF3F0D4EFF3F0DEEFF3F0000E3A6EBD
:10E7AC00000E3B6E000E3C6E000E3D6E0FEFF5F052
:10E7BC00525051C042F0436A425E000E435A7F0EE3
:10E7CC0042244B6E000E43204C6E3AC046F03BC0C8
:10E7DC0047F03CC048F03DC049F0000E3A6E000EC8
:10E7EC003B6E000E3C6E000E3D6E000E4D6E000E2C
:10E7FC004E6E000E4F6E000E506E000E526E3FEFBE
:10E80C00F4F05250D8B40DEFF4F00FEFF4F026EF13
:10E81C00F4F0D8904636473648364936D8903A36D2
:10E82C003B363C363D3650AE1EEFF4F020EFF4F0A4
:10E83C0021EFF4F03A80D8904D364E364F365036A4
:10E84C003E50465C3F5047584050485841504958FC
:10E85C00D8A033EFF4F035EFF4F03EEFF4F0508C39
:10E86C003E50465E3F50475A4050485A4150495AD4
:10E87C00522A190E526445EFF4F047EFF4F007EF0B
:10E88C00F4F04650471048104910D8B450EFF4F04B
:10E89C0052EFF4F06AEFF4F04D806AEFF4F0D89098
:10E8AC003A363B363C363D3650AE5FEFF4F061EF16
:10E8BC00F4F062EFF4F03A80D8904D364E364F3685
:10E8CC0050364B06D8A04C063CAE6FEFF4F071EF0F
:10E8DC00F4F055EFF4F0000E526E50AE78EFF4F009
:10E8EC007AEFF4F09EEFF4F0FF0E4D14426EFF0E33
:10E8FC004E14436EFF0E4F14446E7F0E5014456E33
:10E90C004250431044104510D8B48FEFF4F091EFFF
:10E91C00F4F095EFF4F0010E526E9EEFF4F03AA085
:10E92C009AEFF4F09CEFF4F09EEFF4F091EFF4F02A
:10E93C005250D8B4A4EFF4F0A6EFF4F0CAEFF4F010
:10E94C00010E3A26000E3B223C223D223DA0B1EFA7
:10E95C00F4F0B3EFF4F0CAEFF4F03AC042F03BC07D
:10E96C0043F03CC044F03DC045F0453445324432A0
:10E97C004332423242C03AF043C03BF044C03CF018
:10E98C0045C03DF04B4A4C2A4CBED5EFF4F04C50F0
:10E99C0008E14B28D8A0D5EFF4F0D7EFF4F0E2EF74
:10E9AC00F4F0000E4C6E4B68000E3A6E000E3B6E8F
:10E9BC00000E3C6E000E3D6E4CBEEFEFF4F04C5072
:10E9CC0006E14B04D8B0EDEFF4F0EFEFF4F0FDEF0F
:10E9DC00F4F0000E4C6E000E4B6E000E3A6E000EF4
:10E9EC003B6E000E3C6E000E3D6E000E4A6E4BC030
:10E9FC0051F051A004EFF5F006EFF5F009EFF5F04A
:10EA0C003C8E0AEFF5F03C9ED89051303D6EC0EF35
:10EA1C00F3F012002450800B2D6E24502424336EFE
:10EA2C0023AE1BEFF5F01DEFF5F01EEFF5F0338084
:10EA3C003350D8B424EFF5F026EFF5F039EFF5F0BC
:10EA4C003328D8A42CEFF5F02EEFF5F036EFF5F0D7
:10EA5C00000E216E000E226E000E236E000E246E30
:10EA6C00238E41EFF5F0000E216E000E226E000E8B
:10EA7C00236E000E246E2850800B2D1A285028244B
:10EA8C00326E27AE4CEFF5F04EEFF5F04FEFF5F0A0
:10EA9C0032803250D8B455EFF5F057EFF5F06AEFFD
:10EAAC00F5F03228D8A45DEFF5F05FEFF5F067EFE5
:10EABC00F5F0000E256E000E266E000E276E000E71
:10EACC00286E278E72EFF5F0000E256E000E266E66
:10EADC00000E276E000E286E3250D8B478EFF5F089
:10EAEC007AEFF5F082EFF5F03350D8A480EFF5F023
:10EAFC0082EFF5F08CEFF5F0000E216E000E226E19
:10EB0C00000E236E000E246E24EFF7F02750210226
:10EB1C00F3CF38F0F4CF39F038502E6E2F6A306ABC
:10EB2C00316A3950346E356A366A376A2650220299
:10EB3C00F3CF38F0F4CF39F038502E26000E2F22B8
:10EB4C003022312239503426000E3522362237221B
:10EB5C0025502302F3CF38F0F4CF39F038502E265D
:10EB6C00000E2F223022312239503426000E35224D
:10EB7C003622372230C031F02FC030F02EC02FF0AB
:10EB8C002E6A25502202F3CF38F0F4CF39F03850EA
:10EB9C002E2639502F22000E3022000E3122265004
:10EBAC002102F3CF38F0F4CF39F038502E263950FB
:10EBBC002F22000E3022000E312230C031F02FC037
:10EBCC0030F02EC02FF02E6A25502102F3CF38F0F2
:10EBDC00F4CF39F038502E2639502F22000E302227
:10EBEC00000E312227502202F3CF38F0F4CF39F047
:10EBFC003850342639503522000E3622000E37227A
:10EC0C0026502302F3CF38F0F4CF39F038503426A5
:10EC1C0039503522000E3622000E3722275023029F
:10EC2C00F3CF38F0F4CF39F03850296E39502A6EC2
:10EC3C002B6A2C6A2BC02CF02AC02BF029C02AF08E
:10EC4C00296A295034262A5035222B5036222C5032
:10EC5C0037222EC029F02FC02AF030C02BF031C043
:10EC6C002CF0190E3FEFF6F0D8902C322B322A32C2
:10EC7C002932E82E3AEFF6F0295034262A50352264
:10EC8C002B5036222C50372230C031F02FC030F0B0
:10EC9C002EC02FF02E6A325033C029F02A6A292652
:10ECAC00000E2A22820E2924386EFF0E2A20396E7D
:10ECBC0075EFF6F0D890343635363636373631AE09
:10ECCC006AEFF6F06CEFF6F06DEFF6F03480D8905A
:10ECDC002E362F36303631363806D8A0390636AEB9
:10ECEC007AEFF6F07CEFF6F060EFF6F0000E326E95
:10ECFC0031AE83EFF6F085EFF6F0A9EFF6F0FF0EEC
:10ED0C002E14296EFF0E2F142A6EFF0E30142B6E4C
:10ED1C007F0E31142C6E29502A102B102C10D8B4C5
:10ED2C009AEFF6F09CEFF6F0A0EFF6F0010E326ED3
:10ED3C00A9EFF6F034A0A5EFF6F0A7EFF6F0A9EFE7
:10ED4C00F6F09CEFF6F03250D8B4AFEFF6F0B1EF2E
:10ED5C00F6F0D5EFF6F0010E3426000E35223622F1
:10ED6C00372237A0BCEFF6F0BEEFF6F0D5EFF6F099
:10ED7C0034C029F035C02AF036C02BF037C02CF047
:10ED8C002C342C322B322A32293229C034F02AC0AE
:10ED9C0035F02BC036F02CC037F0384A392A39BE42
:10EDAC00E0EFF6F0395008E13828D8A0E0EFF6F0A3
:10EDBC00E2EFF6F0ECEFF6F0000E346E000E356E6E
:10EDCC00800E366E7F0E376E1AEFF7F039BEF9EF04
:10EDDC00F6F0395006E13804D8B0F7EFF6F0F9EF59
:10EDEC00F6F005EFF7F0000E346E000E356E000EE7
:10EDFC00366E000E376E000E2D6E1AEFF7F038C01F
:10EE0C0033F0FF0E3416FF0E35167F0E3616000E3D
:10EE1C00371633A014EFF7F016EFF7F017EFF7F003
:10EE2C00368ED8903330376E2D50371234C021F0D7
:10EE3C0035C022F036C023F037C024F012005650F3
:10EE4C00800B0001606F56505624626F55AE31EF47
:10EE5C00F7F033EFF7F034EFF7F062816251D8B48A
:10EE6C003AEFF7F03CEFF7F051EFF7F06229D8A446
:10EE7C0042EFF7F044EFF7F04CEFF7F0000E536E63
:10EE8C00000E546E000E556E000E566E558E000E12
:10EE9C00566E59EFF7F0000E536E000E546E000EC6
:10EEAC00556E000E566E5A50800B616F6051611991
:10EEBC00D8B463EFF7F065EFF7F066EFF7F0608D1D
:10EECC005A505A24616F59AE6EEFF7F070EFF7F0AD
:10EEDC0071EFF7F061816151D8B477EFF7F079EF0A
:10EEEC00F7F08EEFF7F06129D8A47FEFF7F081EF00
:10EEFC00F7F089EFF7F0000E576E000E586E000E0B
:10EF0C00596E000E5A6E598E000E5A6E96EFF7F02F
:10EF1C00000E576E000E586E000E596E000E5A6E93
:10EF2C006251615DD8B09DEFF7F09FEFF7F0C6EF3F
:10EF3C00F7F060ADA4EFF7F0A6EFF7F0A8EFF7F05D
:10EF4C00800E601B62C063F061C062F063C061F050
:10EF5C0053C063F057C053F063C057F054C063F014
:10EF6C0058C054F063C058F055C063F059C055F008
:10EF7C0063C059F056C063F05AC056F063C05AF0E3
:10EF8C00000E636F625161C05BF05C6A5B5E000EE9
:10EF9C005C5A5CBEDBEFF7F05C5009E11A0E5B5C6F
:10EFAC00D8A0DBEFF7F0DDEFF7F014EFF8F05350EB
:10EFBC00541055105610D8A4E6EFF7F0E9EFF7F01F
:10EFCC00010EEAEFF7F0000E636F000E536E000EA9
:10EFDC00546E000E556E000E566E61C062F01DEF41
:10EFEC00F8F063A1FCEFF7F0FEEFF7F004EFF8F0A8
:10EFFC00D89063310109636F06EFF8F0D890633352
:10F00C0053A00BEFF8F00DEFF8F00EEFF8F0638F64
:10F01C0056345632553254325332622B6151625D42
:10F02C00D8A01BEFF8F01DEFF8F0F7EFF7F060BD8C
:10F03C0022EFF8F024EFF8F064EFF8F06251D8A466
:10F04C002AEFF8F02CEFF8F036EFF8F0000E536ED4
:10F05C00000E546E000E556E000E566E85EFF9F0D4
:10F06C005750532658505422595055225A50562214
:10F07C0056A043EFF8F045EFF8F0F1EFF8F063A18C
:10F08C004AEFF8F04CEFF8F052EFF8F0D89063310B
:10F09C000109636F54EFF8F0D890633353A059EF24
:10F0AC00F8F05BEFF8F05CEFF8F0638F5634563203
:10F0BC00553254325332622BF1EFF8F05750535C07
:10F0CC0058505458595055585650800A5B6E5A50E7
:10F0DC00800A5B58D8B075EFF8F077EFF8F0A2EF34
:10F0EC00F8F05350575C5B6E545058585C6E55504A
:10F0FC0059585D6E56505A585E6EFF0E5B24536E17
:10F10C00FF0E5C20546EFF0E5D20556EFF0E5E20D0
:10F11C00566E800E601B636D6351D8A498EFF8F0A7
:10F12C009AEFF8F0AAEFF8F0010E5326000E5422D5
:10F13C0055225622AAEFF8F05750535E5850545AA5
:10F14C005950555A5A50565A53505410551056102F
:10F15C00D8A4B3EFF8F0B5EFF8F0EAEFF8F063519C
:10F16C00D8A4BBEFF8F0BDEFF8F0EAEFF8F0000E22
:10F17C00536E000E546E000E556E000E566E85EFDB
:10F18C00F9F0D890533654365536563663AFD1EF26
:10F19C00F8F0D3EFF8F0D4EFF8F0538063A1D9EF87
:10F1AC00F8F0DBEFF8F0DFEFF8F0D8806337E1EF41
:10F1BC00F8F0D89063376251D8B4E7EFF8F0E9EF84
:10F1CC00F8F0EAEFF8F0620755AEEFEFF8F0F1EF78
:10F1DC00F8F0C7EFF8F0000E616F63AFF8EFF8F0DE
:10F1EC00FAEFF8F012EFF9F063C05BF07F0E5B16EC
:10F1FC00D8B403EFF9F005EFF9F009EFF9F0010ECF
:10F20C00616F12EFF9F053A00EEFF9F010EFF9F077
:10F21C0012EFF9F005EFF9F06151D8B418EFF9F0ED
:10F22C001AEFF9F045EFF9F0010E5326000E5422B7
:10F23C005522562256A025EFF9F027EFF9F045EFAD
:10F24C00F9F053C05BF054C05CF055C05DF056C093
:10F25C005EF05E345E325D325C325B325BC053F02A
:10F26C005CC054F05DC055F05EC056F06229D8B455
:10F27C0042EFF9F044EFF9F045EFF9F0622B622917
:10F28C00D8B44BEFF9F04DEFF9F055EFF9F06251BE
:10F29C00D8A453EFF9F055EFF9F067EFF9F0000E41
:10F2AC00536E000E546E000E556E000E566E62516B
:10F2BC00D8A463EFF9F065EFF9F067EFF9F0000E01
:10F2CC00606F62A16CEFF9F06EEFF9F071EFF9F08D
:10F2DC00558E72EFF9F0559ED8906231566E60AF34
:10F2EC007AEFF9F07CEFF9F07DEFF9F0568E53C020
:10F2FC0053F054C054F055C055F056C056F012009F
:10F30C0070ECEDF0A3ECEDF088948D94000E896E0A
:10F31C00000E8B6E000E8E6E000E906E88868888A6
:10F32C00000E0F01116F8A84000E216FA4EFF9F00B
:10F33C00000E026E010E016EE7ECEFF08DA6A9EF48
:10F34C00F9F0ABEFF9F09EEFF9F0000E0001AD6FA4
:10F35C00000EAC6F000E026E010E016EE7ECEFF0CA
:10F36C000001AC4BAD2BADBFC5EFF9F0AD5109E1D0
:10F37C00F50EAC5DD8A0C5EFF9F0C7EFF9F0B0EF22
:10F38C00F9F0CFEFF9F0000E026E010E016E75EC84
:10F39C00EFF08DA8D4EFF9F0D6EFF9F0C9EFF9F052
:10F3AC00000E0001AF6F000EAE6F000E026E010E6C
:10F3BC00016E75ECEFF00001AE4BAF2BAFBFF0EF71
:10F3CC00F9F0AF5109E1F50EAE5DD8A0F0EFF9F010
:10F3DC00F2EFF9F0DBEFF9F0F4EFF9F0000E0001C9
:10F3EC00B16F000EB06FD051D111D211D311D8A47E
:10F3FC0002EFFAF004EFFAF010EFFAF0C1ECEDF0D6
:10F40C0001C0D0F002C0D1F003C0D2F004C0D3F0E0
:10F41C002CEFFAF0C1ECEDF00001D05101247C6F1F
:10F42C00D15102207D6FD25103207E6FD351042025
:10F43C007F6FD8907F337E337D337C337CC0D0F0AC
:10F44C007DC0D1F07EC0D2F07FC0D3F00001B04BB4
:10F45C00B12BB1BF3BEFFAF0B15109E10A0EB05D2F
:10F46C00D8A03BEFFAF03DEFFAF0F9EFF9F0D051FC
:10F47C00CC5D016ED151CD59026EE0ECEDF002BEC7
:10F48C0051EFFAF0025009E1020E015CD8A051EFE5
:10F49C00FAF053EFFAF0F5EFFCF00001CC51D05D2F
:10F4AC00CD51D159CE51D259CF51D359D8B061EF9A
:10F4BC00FAF063EFFAF07CEFFAF0D651D711D8A43A
:10F4CC006AEFFAF06CEFFAF07CEFFAF0820E0001C2
:10F4DC007C6FDD0EE82EFED77C2FFCD700D0000E03
:10F4EC000001D76F010ED66FF5EFFCF0030E056E21
:10F4FC00000E066E000E076E000E086ED0C001F0F6
:10F50C00D1C002F0D2C003F0D3C004F068ECEEF02E
:10F51C0001C07CF002C07DF003C07EF004C07FF01F
:10F52C00030E056E000E066E000E076E000E086EC2
:10F53C00CCC001F0CDC002F0CEC003F0CFC004F0BF
:10F54C0068ECEEF0015000017C5D806F02507D593B
:10F55C00816F03507E59826F04507F59836F680E00
:10F56C0080250E6E010E81210F6E000E8221106E11
:10F57C00000E8321116E680E126E010E136E000EBA
:10F58C00146E000E156E24ECEEF00EC0A8F00FC039
:10F59C00A9F00001A9BFDEEFFAF0A95107E1B50E01
:10F5AC00A85DD8B0DCEFFAF0DEEFFAF0DFEFFBF09D
:10F5BC00D351D2110BE1E90ED05D030ED159D8A075
:10F5CC00EAEFFAF0ECEFFAF00BEFFBF0000EBB6F8A
:10F5DC00000EBA6F000E026E010E016EE7ECEFF03A
:10F5EC00000E0001D96F010ED86FBA4BBB2BBBBFFD
:10F5FC0009EFFBF0BB5109E14D0EBA5DD8A009EF44
:10F60C00FBF00BEFFBF0F0EFFAF0000E996F000E31
:10F61C00986F80EFFBF0000E026E010E016EE7ECAE
:10F62C00EFF08DA61CEFFBF01EEFFBF07DEFFBF077
:10F63C00000E0001B36F000EB26FB3BF2FEFFBF0E3
:10F64C00B35109E1F50EB25DD8A02FEFFBF031EF0D
:10F65C00FBF033EFFBF03EEFFBF0000E026E010E01
:10F66C00016EE7ECEFF00001B24BB32B23EFFBF094
:10F67C00000E9B6F000E9A6F62EFFBF0000E026E95
:10F68C00010E016EE7ECEFF0D0C07CF0D1C07DF044
:10F69C00D2C07EF0D3C07FF00001D8907F337E3390
:10F6AC007D337C337CC0CCF07DC0CDF07EC0CEF001
:10F6BC007FC0CFF09A4B9B2BD0C001F0D1C002F091
:10F6CC00E0ECEDF0D89001360236015000019A5D65
:10F6DC009B51800A7C6F0250800A7C59D8A079EF2C
:10F6EC00FBF07BEFFBF044EFFBF0D5EFFBF0000100
:10F6FC00984B992B200E016E030E026E000E036EBA
:10F70C00000E046ED0C005F0D1C006F0D2C007F0D8
:10F71C00D3C008F068ECEEF0D0C07CF0D1C07DF026
:10F72C00000E00017DBFFF0E7E6F7F6FCC517C5DA4
:10F73C00806FCD517D59816FCE517E59826FCF51E3
:10F74C007F59836FD8908035846F8135856F823572
:10F75C00866F8335876F01508425886F0250852111
:10F76C00896F035086218A6F045087218B6F98C054
:10F77C008CF099C08DF0000E8DBFFF0E8E6F8F6FC9
:10F78C0088518C5D89518D598A518E598B518F5965
:10F79C00D8A0D3EFFBF0D5EFFBF011EFFBF0D0C00E
:10F7AC00CCF0D1C0CDF0D2C0CEF0D3C0CFF0F1EFC1
:10F7BC00FCF0A9BFEBEFFBF0A95109E1B50EA85D78
:10F7CC00D8A0EBEFFBF0EDEFFBF0F1EFFCF0D80580
:10F7DC00D911D8A4F4EFFBF0F6EFFBF015EFFCF029
:10F7EC00000EBB6F000EBA6F000E026E020E016EA1
:10F7FC00E7ECEFF0000E0001D96F000ED86FBA4B9A
:10F80C00BB2BBBBF13EFFCF0BB5109E14D0EBA5D36
:10F81C00D8A013EFFCF015EFFCF0FAEFFBF0000EA4
:10F82C009D6F000E9C6FA5EFFCF0000E026E020E99
:10F83C00016EE7ECEFF00001D051D111D211D311D0
:10F84C00D8A42BEFFCF02DEFFCF047EFFCF0CF51E0
:10F85C00CE110BE1E90ECC5D030ECD59D8A039EFDA
:10F86C00FCF03BEFFCF047EFFCF0320ECC25CC6FFC
:10F87C00000ECD21CD6F000ECE21CE6F000ECF210C
:10F88C00CF6F8DA64CEFFCF04EEFFCF0A3EFFCF02D
:10F89C00000EB56F000EB46FB5BF5EEFFCF0B55146
:10F8AC0009E1F00EB45DD8A05EEFFCF060EFFCF067
:10F8BC0062EFFCF06DEFFCF0000E026E020E016EBA
:10F8CC00E7ECEFF00001B44BB52B52EFFCF0000E5F
:10F8DC009F6F000E9E6F7CEFFCF0000E026E020E0E
:10F8EC00016EE7ECEFF000019E4B9F2BD05100080E
:10F8FC00016ED151D8A0E82A0408026EE0ECEDF0BC
:10F90C00D89001360236015000019E5D9F51800A4D
:10F91C007C6F0250800A7C59D8A097EFFCF099EFCD
:10F92C00FCF073EFFCF0D0C0CCF0D1C0CDF0D2C065
:10F93C00CEF0D3C0CFF0D5EFFBF09C4B9D2BD0512C
:10F94C00CC5D016ED151CD59026EE0ECEDF0D8904A
:10F95C00013400017C6F02347D6F7E6B7DBF7E07AE
:10F96C007E517F6F900E016E010E026E000E036EC3
:10F97C00000E046ED0C005F0D1C006F0D2C007F066
:10F98C00D3C008F068ECEEF0015000017C5D806F94
:10F99C0002507D59816F03507E59826F04507F59FC
:10F9AC00836F9CC084F09DC085F0000E85BFFF0E58
:10F9BC00866F876F8051845D81518559825186593C
:10F9CC0083518759D8A0EDEFFCF0EFEFFCF01BEF63
:10F9DC00FCF0D5EFFBF0000ED76F000ED66F0001D8
:10F9EC00D351D211D11107E1650ED05DD8B001EF22
:10F9FC00FDF003EFFDF006EFFDF0838407EFFDF063
:10FA0C0083943AECF2F06EC090F06FC091F070C03D
:10FA1C0092F071C093F0000E576E000E586E800E6F
:10FA2C00596E3F0E5A6E90C053F091C054F092C074
:10FA3C0055F093C056F025ECF7F053C064F054C069
:10FA4C0065F055C066F056C067F0DCECF0F064C0B1
:10FA5C00DAF065C0DBF00001DA51C85D016EDB51F4
:10FA6C00C959026EE0ECEDF002BE45EFFDF002501C
:10FA7C0008E10104D8A045EFFDF047EFFDF0F4EFED
:10FA8C00F9F00001DBBF56EFFDF0DB5107E1050E8D
:10FA9C00DA5DD8B054EFFDF056EFFDF05AEFFDF003
:10FAAC00000EDB6F000EDA6FCD0E3E6E3B0E3F6E1E
:10FABC008E0E406E3E0E416EDAC013F0DBC014F0B9
:10FACC00000E14BEFF0E156E166E010E60ECF1F0FA
:10FADC0013C03AF014C03BF015C03CF016C03DF01A
:10FAEC0043ECF3F03AC064F03BC065F03CC066F008
:10FAFC003DC067F0DCECF0F064C07CF065C07DF0DC
:10FB0C0066C07EF067C07FF0CD0E3E6E3B0E3F6E42
:10FB1C008E0E406E3E0E416EC8C013F0C9C014F07C
:10FB2C00CAC015F0CBC016F0000E60ECF1F013C09B
:10FB3C003AF014C03BF015C03CF016C03DF043EC5D
:10FB4C00F3F03AC064F03BC065F03CC066F03DC0D9
:10FB5C0067F0DCECF0F0000164517C5F65517D5B7B
:10FB6C00680E7C256E6F010E7D216F6F010E716F1B
:10FB7C00680E706FBAECEEF06EC0AAF06FC0ABF00E
:10FB8C000001ABBFD5EFFDF0AB5107E1B50EAA5D9F
:10FB9C00D8B0D3EFFDF0D5EFFDF003EFFFF0000E82
:10FBAC00A16F000EA06F45EFFEF0000E026E010E6D
:10FBBC00016E75ECEFF08DA8E6EFFDF0E8EFFDF0CF
:10FBCC0042EFFEF0000E0001B76F000EB66FB7BF2C
:10FBDC00F9EFFDF0B75109E1F50EB65DD8A0F9EFDC
:10FBEC00FDF0FBEFFDF0FDEFFDF008EFFEF0000E79
:10FBFC00026E010E016E75ECEFF00001B64BB72BE7
:10FC0C00EDEFFDF0000EA36F000EA26F17EFFEF0EC
:10FC1C00000E026E010E016E75ECEFF00001A24BAE
:10FC2C00A32BDAC001F0DBC002F0E0ECEDF001C078
:10FC3C0005F002C006F0000E086E140E076E75EC8F
:10FC4C00EDF005500001A25DA351800A7C6F0650B7
:10FC5C00800A7C59D8A035EFFEF037EFFEF00EEF9E
:10FC6C00FEF0DAC0C8F0DBC0C9F0000EC9BFFF0E51
:10FC7C00CA6FCB6FF8EFFEF00001A04BA12B000E6A
:10FC8C00086E090E076EDAC005F0DBC006F075ECE5
:10FC9C00EDF005C00DF006C00EF0030E0C6EE80E74
:10FCAC000B6E13ECEFF00BC013F00CC014F0000E45
:10FCBC0014BEFF0E156E166E010E60ECF1F013C043
:10FCCC0057F014C058F015C059F016C05AF00A0E6F
:10FCDC00256ED70E266EA30E276E410E286EDAC047
:10FCEC007CF0DBC07DF0000E00017DBFFF0E7E6F4F
:10FCFC007F6FC8517C5D136EC9517D59146ECA510A
:10FD0C007E59156ECB517F59166E000E60ECF1F0DA
:10FD1C0013C021F014C022F015C023F016C024F03B
:10FD2C0010ECF5F021C053F022C054F023C055F074
:10FD3C0024C056F025ECF7F053C094F054C095F065
:10FD4C0055C096F056C097F0A0C013F0A1C014F0A7
:10FD5C00000E14BEFF0E156E166E010E60ECF1F067
:10FD6C0013C06CF014C06DF015C06EF016C06FF0BF
:10FD7C00000E0E6E030E0D6EDAC00BF0DBC00CF035
:10FD8C0013ECEFF00BC013F00CC014F0000E14BE0B
:10FD9C00FF0E156E166E010E60ECF1F013C057F0ED
:10FDAC0014C058F015C059F016C05AF094C053F056
:10FDBC0095C054F096C055F097C056F025ECF7F06E
:10FDCC0053C070F054C071F055C072F056C073F04F
:10FDDC0059ECF0F00001D8A0F6EFFEF0F8EFFEF0D1
:10FDEC00DBEFFDF0DAC0C8F0DBC0C9F0000EC9BF14
:10FDFC00FF0ECA6FCB6FF4EFF9F0ABBF0FEFFFF054
:10FE0C00AB5109E1B50EAA5DD8A00FEFFFF011EFD1
:10FE1C00FFF0F4EFF9F0000EA56F000EA46F7DEF6C
:10FE2C00FFF0000E026E020E016E75ECEFF08DA865
:10FE3C0022EFFFF024EFFFF07AEFFFF0000E00014D
:10FE4C00B96F000EB86FB9BF35EFFFF0B95109E1CA
:10FE5C00F50EB85DD8A035EFFFF037EFFFF039EFB6
:10FE6C00FFF044EFFFF0000E026E020E016E75EC17
:10FE7C00EFF00001B84BB92B29EFFFF0000EA76F84
:10FE8C00000EA66F53EFFFF0000E026E020E016E15
:10FE9C0075ECEFF00001A64BA72BDAC005F0DBC028
:10FEAC0006F0FF0E086EF60E076E75ECEDF0E80E20
:10FEBC000524016E030E0620026EE0ECEDF0D890E6
:10FECC000136023601500001A65DA751800A7C6FF5
:10FEDC000250800A7C59D8A076EFFFF078EFFFF043
:10FEEC004AEFFFF037EFFEF00001A44BA52BA4C0A6
:10FEFC0013F0A5C014F0000E14BEFF0E156E166E96
:10FF0C00010E60ECF1F013C06CF014C06DF015C074
:10FF1C006EF016C06FF0000E086E0A0E076EDAC097
:10FF2C0005F0DBC006F075ECEDF005C00DF006C079
:10FF3C000EF0010E0C6EF40E0B6E13ECEFF00BC00A
:10FF4C0013F00CC014F0000E14BEFF0E156E166EDE
:10FF5C00010E60ECF1F013C068F014C069F015C02C
:10FF6C006AF016C06BF00A0E256ED70E266EA30E25
:10FF7C00276E410E286E0001DA51C85D016EDB510F
:10FF8C00C959026EE0ECEDF001C013F002C014F0A0
:10FF9C00000E14BEFF0E156E166E010E60ECF1F025
:10FFAC0013C021F014C022F015C023F016C024F0A9
:10FFBC0010ECF5F021C064F022C065F023C066F0AF
:10FFCC0024C067F000ECEEF064C070F065C071F016
:10FFDC0066C072F067C073F059ECF0F00001D8A065
:10FFEC00FAEFFFF0FCEFFFF017EFFFF0F8EFFEF089
:04FFFC0000EF00F022
:020000040020DA
:10000000FF0FFF0FFF0FFF0FFF0FFF0FFF0FFF0F80
:020000040030CA
:0C000000FFFFFFFF9FFFFFFFFFFFFFFF60
:00000001FF
