:020000040000FA
:04000000B4EFFDF06C
:020000040001F9
:10FABA00888089808982000E0F01216F000E196FDC
:10FACA003F0E576F1200958E958C968A9650F00BC2
:10FADA000209966E8A908A968A9A100E0E01FC6F17
:10FAEA000F0EFA6F1200808F9FAEBDCAD7E2EBF3FA
:10FAFA00F9FDFFFFFDF9F3EBE2D7CABDAE9F8F8098
:10FB0A007060514235281D140C0602000002060CD2
:10FB1A00141D2835425160700500000E606E000EFB
:10FB2A000F015F6F608E608060B09EEFFDF0A0EF06
:10FB3A00FDF099EFFDF0609E63CF39F064CF3AF0A3
:10FB4A00060E3B6ED8903A3239323B2EA7EFFDF0C3
:10FB5A0039C035F03AC036F0376A386A1200818EF9
:10FB6A00819C240EF66EFC0EF76E010EF86E00EE06
:10FB7A0060F010EE96F00900F5CFEEFFE550E15087
:10FB8A00FAE1F00EF66EFA0EF76E010EF86E00EE5E
:10FB9A0001F010EE34F00900F5CFEEFFE550E15028
:10FBAA00FAE100EE54F00C0EEE6AE806FDE10001FF
:10FBBA005DEFFEF0376E8590F00E3A6E000E396EEC
:10FBCA003750356E366A353A363AF00E36163550B3
:10FBDA000F0B3612F00E351639503510396E3A5071
:10FBEA0036103A6E3A50386E925038C092FF95A04D
:10FBFA0001EFFEF003EFFEF0FCEFFDF0959039C047
:10FC0A0038F0925038C092FF95A00EEFFEF010EF38
:10FC1A00FEF009EFFEF085801200050A0F141A1F84
:10FC2A0024292E33383D42474D52575C61666B702A
:10FC3A00757A80858A8F94999EA3A8ADB3B8BDC200
:10FC4A00C7CCD1D6DBE0E6EBF0F5FAFF0A141F29A0
:10FC5A00333D47525C66707A858F99A3ADB8C2CCA2
:10FC6A00D6E0EBF5FFF5EBE0D6CCC2B8ADA3998FA1
:10FC7A00857A70665C52473D33291F140A00FFFFDC
:10FC8A00FFFFFFFFFFFFFFFFFFFFFFFFFFFFFFFF7A
:10FC9A00FFFFFFFFFFFFFF01010101010101010158
:10FCAA00010101010101010101010101010101013A
:10FCBA00070E0E01DE6F5DECFDF068ECFDF05C50A6
:10FCCA005D105E105F10D8A46DEFFEF06FEFFEF0CE
:10FCDA007BEFFEF092ECFDF035C05CF036C05DF0D3
:10FCEA0037C05EF038C05FF09AEFFEF092ECFDF09C
:10FCFA005C5035243C6E5D5036203D6E5E50372098
:10FD0A003E6E5F5038203F6ED8903F323E323D32D1
:10FD1A003C32020E3C245C6E000E3D205D6E000EED
:10FD2A003E205E6E000E3F205F6E8EB09FEFFEF0AB
:10FD3A00A1EFFEF0F3EFFEF08EB2A6EFFEF0A8EF11
:10FD4A00FEF0F3EFFEF0000E496E000E486E010E53
:10FD5A004824D96E000E4920DA6EDF50506E50509A
:10FD6A00DFECFDF0000E416E000E406EC3EFFEF0B8
:10FD7A00C80E00D0E82EFDD7404A412A5CC03CF0AC
:10FD8A005DC03DF05EC03EF05FC03FF0040ED3EFB1
:10FD9A00FEF0D8903F323E323D323C32E82ECEEF72
:10FDAA00FEF03C50405C3D504158D8A0DFEFFEF0D9
:10FDBA00E1EFFEF0BDEFFEF0484A492A49BEEFEFF7
:10FDCA00FEF0495009E1320E485CD8A0EFEFFEF090
:10FDDA00F1EFFEF0ACEFFEF064EFFEF08EA0F8EF6C
:10FDEA00FEF0FAEFFEF04CEFFFF08EB2FFEFFEF0FE
:10FDFA0001EFFFF04CEFFFF0000E4B6E000E4A6E63
:10FE0A00C40E4A24D96E000E4B20DA6EDF50516EB2
:10FE1A005150DFECFDF0000E436E000E426E1CEFF7
:10FE2A00FFF0C80E00D0E82EFDD7424A432A5CC034
:10FE3A003CF05DC03DF05EC03EF05FC03FF0040E96
:10FE4A002CEFFFF0D8903F323E323D323C32E82E62
:10FE5A0027EFFFF03C50425C3D504358D8A038EFA2
:10FE6A00FFF03AEFFFF016EFFFF04A4A4B2A4BBE7B
:10FE7A0048EFFFF04B5009E1320E4A5CD8A048EF38
:10FE8A00FFF04AEFFFF005EFFFF064EFFEF08EB0EF
:10FE9A0051EFFFF053EFFFF0A5EFFFF08EA258EFFE
:10FEAA00FFF05AEFFFF0A5EFFFF0000E4D6E000EC7
:10FEBA004C6E920E4C24D96E000E4D20DA6EDF5035
:10FECA00526E5250DFECFDF0000E456E000E446E8D
:10FEDA0075EFFFF0C80E00D0E82EFDD7444A452A38
:10FEEA005CC03CF05DC03DF05EC03EF05FC03FF0DC
:10FEFA00040E85EFFFF0D8903F323E323D323C325D
:10FF0A00E82E80EFFFF03C50445C3D504558D8A0A5
:10FF1A0091EFFFF093EFFFF06FEFFFF04C4A4D2A9D
:10FF2A004DBEA1EFFFF04D5009E1320E4C5CD8A056
:10FF3A00A1EFFFF0A3EFFFF05EEFFFF064EFFEF03A
:10FF4A008EA0AAEFFFF0ACEFFFF064EFFEF08EA2F6
:10FF5A00B1EFFFF0B3EFFFF064EFFEF0000E4F6E6B
:10FF6A00000E4E6E600E4E24D96E000E4F20DA6ED1
:10FF7A00DF50536E5350DFECFDF0000E476E000E5B
:10FF8A00466ECEEFFFF0C80E00D0E82EFDD7464AE7
:10FF9A00472A5CC03CF05DC03DF05EC03EF05FC0E9
:10FFAA003FF0040EDEEFFFF0D8903F323E323D3292
:10FFBA003C32E82ED9EFFFF03C50465C3D504758A2
:10FFCA00D8A0EAEFFFF0ECEFFFF0C8EFFFF04E4ADF
:10FFDA004F2A4FBEFAEFFFF04F5009E1320E4E5C46
:10FFEA00D8A0FAEFFFF0FCEFFFF0B7EFFFF064EFF5
:06FFFA00FEF000EF00F034
:020000040020DA
:10000000FF0FFF0FFF0FFF0FFF0FFF0FFF0FFF0F80
:020000040030CA
:0C000000FFFFFFFF9FFFFFFFFFFFFFFF60
:00000001FF
