:020000040000FA
:040000006BEF00F0B2
:100008005D820E01D0A10BEF00F00DEF00F069EF5B
:1000180000F0000ECE6E000ECD6ED091D0A117EF7D
:1000280000F019EF00F012EF00F0D091AACFB3F072
:10003800ABCFB4F00001B56BB66BB651B5110BE19F
:10004800900EB35D060EB459D8A02DEF00F02FEF37
:1000580000F03DEF00F0000EC26F000EC16F1A0EE7
:10006800016EF80EE82EFED7012EFCD700D065EF02
:1000780000F0B651B5110BE1820EB35D050EB4590F
:10008800D8A049EF00F04BEF00F051EF00F0000E60
:10009800C26F010EC16F33EF00F0B651B5110BE11D
:1000A8007A0EB35D030EB459D8A05DEF00F05FEF90
:1000B80000F065EF00F0000EC26F020EC16F33EF63
:1000C80000F0000ECE6E000ECD6E5D9211004DEF69
:0200D80016F020
:050F0000002575000052
:100F0600000E00019B6F000E9A6F000E9D6F000E83
:100F16009C6F000E9F6F000E9E6F000E8F6F000E6F
:100F26008E6F000E876F000E866F44EC17F00FEC85
:100F360017F0A6EC16F016EC14F0FFEC16F06CECBD
:100F460016F0888488868888888A000E0F01116FBB
:100F560088928D928A908F908A928F928A848F94AB
:100F66008A9A8F9A8DA4BAEF07F0BCEF07F002EFCA
:100F76000AF00001B751B811B911BA11D8A4C6EFD9
:100F860007F0C8EF07F0D4EF07F02BEC16F002C01D
:100F9600B7F003C0B8F004C0B9F005C0BAF0F4EF7A
:100FA60007F02BEC16F00001B7510224576EB8512A
:100FB6000320586EB9510420596EBA5105205A6E55
:100FC600D8905A32593258325732010E5724B76FD9
:100FD600000E5820B86F000E5920B96F000E5A2027
:100FE600BA6FB7C002F0B8C003F0B9C004F0BAC017
:100FF60005F02A0E066E000E076E000E086E000E35
:10100600096E79EC13F002C07CF003C07DF0B7C026
:1010160002F0B8C003F0B9C004F0BAC005F0110E72
:10102600066E000E076E000E086E000E096E79EC55
:1010360013F002C082F003C083F08DB625EF08F0EE
:1010460027EF08F06EEF08F000019A4B9B2B040E79
:101056009A199B11D8A432EF08F034EF08F038EF54
:1010660008F0000E9B6F000E9A6F100E706F270E21
:10107600716F000E726F000E736F43EF08F085807C
:101086007007000E715B725B735B705171117211A8
:101096007311D8A451EF08F053EF08F042EF08F0AF
:1010A6009A519B11D8B45AEF08F05CEF08F06EEF36
:1010B60008F085906EEF08F07C518BEC14F088EF09
:1010C60008F082515CEC15F088EF08F0825156EC7E
:1010D60014F088EF08F000019A51576E586A58507C
:1010E600000AD8B479EF08F088EF08F05750010AE3
:1010F600D8B45FEF08F0030AD8B464EF08F0010A29
:10110600D8B469EF08F088EF08F0000E0001916F7F
:10111600000E906F91BF99EF08F0915109E1020E10
:10112600905DD8A099EF08F09BEF08F09DEF08F0CE
:10113600A9EF08F0A50E9025D96E000E9121DA6E62
:10114600000EDF6E904B912B8DEF08F0540EC4EC21
:1011560012F03A0EC4EC12F0200EC4EC12F0A50EFA
:101166000001606F000E616F010E626F0F0E636FFC
:10117600CCEC16F0576E57500001646F656BE0ECCF
:1011860015F0A5C0AAF0A6C0A7F00001AA51D8B4D0
:10119600CFEF08F0D1EF08F0E2EF08F0A751D8B48E
:1011A600D7EF08F0D9EF08F0E2EF08F0AA51C4EC47
:1011B60012F00001A751C4EC12F001EF09F0AA5198
:1011C600D8B4E8EF08F0EAEF08F0FBEF08F0A75113
:1011D600D8A4F0EF08F0F2EF08F0FBEF08F0300EBD
:1011E600C4EC12F00001AA51C4EC12F001EF09F0B0
:1011F600300EC4EC12F0300EC4EC12F03A0EC4EC11
:1012060012F0A50E0001606F000E616F010E626F95
:101216000F0E636F1FEC17F0576E57500001646F87
:10122600656BE0EC15F0A5C0AAF0A6C0A7F000011A
:10123600AA51D8B421EF09F023EF09F034EF09F0F1
:10124600A751D8B429EF09F02BEF09F034EF09F0D4
:10125600AA51C4EC12F00001A751C4EC12F053EFEE
:1012660009F0AA51D8B43AEF09F03CEF09F04DEF76
:1012760009F0A751D8A442EF09F044EF09F04DEF69
:1012860009F0300EC4EC12F00001AA51C4EC12F0C1
:1012960053EF09F0300EC4EC12F0300EC4EC12F02D
:1012A6003A0EC4EC12F0A50E0001606F000E616FDD
:1012B600010E626F0F0E636FBBEC16F0576E575040
:1012C6000001646F656BE0EC15F0A5C0AAF0A6C03E
:1012D600A7F00001AA51D8B473EF09F075EF09F031
:1012E60086EF09F0A751D8B47BEF09F07DEF09F03E
:1012F60086EF09F0AA51C4EC12F00001A751C4EC24
:1013060012F0A5EF09F0AA51D8B48CEF09F08EEFD0
:1013160009F09FEF09F0A751D8A494EF09F096EFD2
:1013260009F09FEF09F0300EC4EC12F00001AA514B
:10133600C4EC12F0A5EF09F0300EC4EC12F0300E3A
:10134600C4EC12F0200EC4EC12F0200EC4EC12F025
:10135600200EC4EC12F000019E059F11D8A4B6EF32
:1013660009F0B8EF09F0C0EF09F0410EC4EC12F035
:10137600530EC4EC12F0C6EF09F02A0EC4EC12F0BC
:101386002A0EC4EC12F03FEC17F002C086F003C040
:1013960087F0A50E0001606F000E616F010E626F8F
:1013A6000F0E636F86C064F087C065F0E0EC15F041
:1013B600A5C0AAF0C00E67EC12F0430EC4EC12F002
:1013C600480EC4EC12F03A0EC4EC12F0200EC4EC37
:1013D60012F00001AA51D8B4F3EF09F0F5EF09F0C5
:1013E600FAEF09F0AA51C4EC12F0FDEF09F0300E45
:1013F600C4EC12F0020E67EC12F00CEF0CF00001D8
:101406008E518F11D8A40AEF0AF00CEF0AF014EFF0
:101416000AF0010E67EC12F000018E4B8F2B24EFC1
:101426000AF08E058F11D8A41BEF0AF01DEF0AF003
:1014360024EF0AF0020E67EC12F000018E07D8A026
:101446008F07B751B811B911BA11D8A42DEF0AF008
:101456002FEF0AF03BEF0AF02BEC16F002C0B7F0C4
:1014660003C0B8F004C0B9F005C0BAF05BEF0AF0EB
:101476002BEC16F00001B7510224576EB851032029
:10148600586EB9510420596EBA5105205A6ED8903B
:101496005A32593258325732010E5724B76F000E5E
:1014A6005820B86F000E5920B96F000E5A20BA6F37
:1014B600B7C002F0B8C003F0B9C004F0BAC005F076
:1014C6002A0E066E000E076E000E086E000E096EDE
:1014D60079EC13F002C07EF003C07FF0B7C002F0D3
:1014E600B8C003F0B9C004F0BAC005F0110E066E1C
:1014F600000E076E000E086E000E096E79EC13F0F2
:1015060002C084F003C085F08DB68CEF0AF08EEF32
:101516000AF0D5EF0AF000019C4B9D2B040E9C1996
:101526009D11D8A499EF0AF09BEF0AF09FEF0AF0FD
:10153600000E9D6F000E9C6F100E746F270E756F58
:10154600000E766F000E776FAAEF0AF08582740799
:10155600000E755B765B775B7451751176117711AA
:10156600D8A4B8EF0AF0BAEF0AF0A9EF0AF09C5136
:101576009D11D8B4C1EF0AF0C3EF0AF0D5EF0AF017
:101586008592D5EF0AF07E51C0EC14F0EFEF0AF029
:101596008451B4EC15F0EFEF0AF0845188EC15F0A5
:1015A600EFEF0AF000019C51576E586A5850000A36
:1015B600D8B4E0EF0AF0EFEF0AF05750010AD8B4BA
:1015C600C6EF0AF0030AD8B4CBEF0AF0010AD8B482
:1015D600D0EF0AF0EFEF0AF0000E0001936F000E55
:1015E600926F93BF00EF0BF0935109E1020E925DEB
:1015F600D8A000EF0BF002EF0BF004EF0BF010EFAA
:101606000BF0A00E9225D96E000E9321DA6E000E15
:10161600DF6E924B932BF4EF0AF0410EC4EC12F0FE
:101626003A0EC4EC12F0200EC4EC12F0A00E00012B
:10163600606F000E616F010E626F0F0E636FEEEC4E
:1016460016F0576E57500001646F656BE0EC15F0AD
:10165600A0C0A9F0A1C0A8F00001A951D8B436EFE6
:101666000BF038EF0BF049EF0BF0A851D8B43EEF72
:101676000BF040EF0BF049EF0BF0A951C4EC12F060
:101686000001A851C4EC12F068EF0BF0A951D8B4D0
:101696004FEF0BF051EF0BF062EF0BF0A851D8A40F
:1016A60057EF0BF059EF0BF062EF0BF0300EC4EC76
:1016B60012F00001A951C4EC12F068EF0BF0300EE5
:1016C600C4EC12F0300EC4EC12F03A0EC4EC12F078
:1016D600A00E0001606F000E616F010E626F0F0EAB
:1016E600636F2FEC17F0576E57500001646F656BF0
:1016F600E0EC15F0A0C0A9F0A1C0A8F00001A95126
:10170600D8B488EF0BF08AEF0BF09BEF0BF0A851E3
:10171600D8B490EF0BF092EF0BF09BEF0BF0A951C2
:10172600C4EC12F00001A851C4EC12F0BAEF0BF0B1
:10173600A951D8B4A1EF0BF0A3EF0BF0B4EF0BF067
:10174600A851D8A4A9EF0BF0ABEF0BF0B4EF0BF058
:10175600300EC4EC12F00001A951C4EC12F0BAEF3D
:101766000BF0300EC4EC12F0300EC4EC12F03A0E50
:10177600C4EC12F0A00E0001606F000E616F010E46
:10178600626F0F0E636FDDEC16F0576E5750000157
:10179600646F656BE0EC15F0A0C0A9F0A1C0A8F0DD
:1017A6000001A951D8B4DAEF0BF0DCEF0BF0EDEF46
:1017B6000BF0A851D8B4E2EF0BF0E4EF0BF0EDEF2D
:1017C6000BF0A951C4EC12F00001A851C4EC12F0C0
:1017D6000CEF0CF0A951D8B4F3EF0BF0F5EF0BF0CA
:1017E60006EF0CF0A851D8A4FBEF0BF0FDEF0BF0C1
:1017F60006EF0CF0300EC4EC12F00001A951C4EC57
:1018060012F00CEF0CF0300EC4EC12F0300EC4ECFB
:1018160012F00F0E026E680E59EC0FF0576E57A0BD
:1018260017EF0CF019EF0CF020EF0CF0000E000192
:10183600816F010E806F25EF0CF0000E0001816FA5
:10184600000E806F8DB82AEF0CF02CEF0CF07BEFBA
:101856000CF09E519F11D8A433EF0CF035EF0CF02D
:101866004AEF0CF00E0E026E050E036E680EA4EC27
:1018760011F00A0E026E800E036E680EA4EC11F0D3
:10188600000E00019F6F010E9E6F5FEF0CF09E052C
:101896009F11D8A451EF0CF053EF0CF05FEF0CF052
:1018A6000E0E026E040E036E680EA4EC11F0000E0E
:1018B60000019F6F000E9E6F100E786F270E796FD6
:1018C600000E7A6F000E7B6F6AEF0CF0838278074A
:1018D600000E795B7A5B7B5B785179117A117B110B
:1018E600D8A478EF0CF07AEF0CF069EF0CF0839245
:1018F60080058111D8A482EF0CF084EF0CF06CEF18
:101906000DF09E059F11D8A48BEF0CF08DEF0CF017
:101916006CEF0DF099EF0CF0858A530EE82EFED78A
:1019260000F0859A530EE82EFED700F08DB89EEF94
:101936000CF0A0EF0CF08FEF0CF00F0E026E000E05
:10194600036E680EA4EC11F06CEF0DF0000E0001B2
:10195600896F000E886F89BFBAEF0CF0895109E1D3
:10196600020E885DD8A0BAEF0CF0BCEF0CF0BEEF0B
:101976000CF0B5EF07F0000E956F000E946F95BF53
:10198600CEEF0CF0955109E1320E945DD8A0CEEF62
:101996000CF0D0EF0CF0D2EF0CF0E6EF0CF0640E8A
:1019A6009425D96E010E9521DA6EDF50A26FA251F1
:1019B600F5EC14F0C80E00D0E82EFDD70001944BCC
:1019C600952BC2EF0CF0884B892BAEEF0CF0000E76
:1019D60000018B6F000E8A6F8BBFFBEF0CF08B51F3
:1019E60009E1020E8A5DD8A0FBEF0CF0FDEF0CF0CA
:1019F600FFEF0CF0B5EF07F0000E976F000E966F35
:101A060097BF0FEF0DF0975109E1320E965DD8A002
:101A16000FEF0DF011EF0DF013EF0DF027EF0DF0B6
:101A2600320E9625D96E010E9721DA6EDF50A36F1E
:101A3600A351F5EC14F0C80E00D0E82EFDD7000136
:101A4600964B972B03EF0DF08A4B8B2BEFEF0CF099
:101A5600000E00018D6F000E8C6F8DBF3CEF0DF0F8
:101A66008D5109E1020E8C5DD8A03CEF0DF03EEFE2
:101A76000DF040EF0DF0B5EF07F0000E996F000E78
:101A8600986F99BF50EF0DF0995109E1320E985DAC
:101A9600D8A050EF0DF052EF0DF054EF0DF068EFB7
:101AA6000DF0000E9825D96E010E9921DA6EDF50E1
:101AB600A46FA451F5EC14F0C80E00D0E82EFDD7A3
:101AC6000001984B992B44EF0DF08C4B8D2B30EF8A
:101AD6000DF086C057F087C058F05850000AD8B4A9
:101AE60077EF0DF0B5EF07F05750000AD8B4A9EF1D
:101AF6000CF0010AD8B4EAEF0CF0030AD8B42BEFC5
:101B06000DF0B5EF07F06BEF00F00001C0BF8EEFF0
:101B16000DF090EF0DF091EF0DF05B92C0BF9EEFD0
:101B26000DF0C05106E1BF05D8B09CEF0DF09EEF59
:101B36000DF0A4EF0DF0000E306E010E2F6EA8EF23
:101B46000DF0BFC02FF0C0C030F0BDC031F0BEC038
:101B560032F01FC033F020C034F021C035F022C06F
:101B660036F023C037F024C038F025C039F026C03F
:101B76003AF0000E3C6E1F0E3B6E000EE26F3AEF1F
:101B86000EF03B06D8A03C06C30E3B24D96E000ED1
:101B96003C20DA6E33C002F034C003F035C004F0E6
:101BA60036C005F037C006F038C007F039C008F077
:101BB6003AC009F00A0E0A6E000E0B6E000E0C6E8D
:101BC600000E0D6E000E0E6E000E0F6E000E106EE5
:101BD600000E116E75EC10F002C027F003C028F05D
:101BE60004C029F005C02AF006C02BF007C02CF06F
:101BF60008C02DF009C02EF02750300FDF6E2F06DB
:101C0600D8A030063106D8A0320633C002F034C060
:101C160003F035C004F036C005F037C006F038C012
:101C260007F039C008F03AC009F00A0E0A6E000E35
:101C36000B6E000E0C6E000E0D6E000E0E6E000E7C
:101C46000F6E000E106E000E116EFDEC0FF002C04E
:101C560033F003C034F004C035F005C036F006C0DA
:101C660037F007C038F008C039F009C03AF03B50E9
:101C76003C10D8B441EF0EF043EF0EF073EF0EF0C8
:101C860033503410351036103710381039103A10DA
:101C9600D8A450EF0EF052EF0EF0C4EF0DF030BEA8
:101CA6005FEF0EF0305006E12F04D8B05DEF0EF076
:101CB6005FEF0EF0C4EF0DF032BE6AEF0EF0325059
:101CC60008E13104D8A06AEF0EF06CEF0EF073EF66
:101CD6000EF05BB271EF0EF073EF0EF0C4EF0DF085
:101CE6001DC012F01EC013F0C30E3B24146E000E6E
:101CF6003C20156E31C016F032C017F006EC12F01B
:101D060012C01DF013C01EF012003FC0D9FF40C024
:101D1600DAFFDECFF6FFDDCFF7FF000EF86E080024
:101D2600F550250AD8A49AEF0EF09CEF0EF03BEF83
:101D36000FF03FC0D9FF40C0DAFFDE2A000EDD22D9
:101D4600000E0001BE6F000EBD6FBDC05BF0BEC0D1
:101D56005CF0BF69C0693FC0D9FF40C0DAFFDECF83
:101D6600F6FFDDCFF7FF000EF86E0800F550750A96
:101D7600D8A4C0EF0EF0C2EF0EF003EF0FF03FC095
:101D8600D9FF40C0DAFFDE2A000EDD2241C0D9FFAE
:101D960042C0DAFFDFCF43F0020EDE26DFCF44F08B
:101DA600000EDD2243C0D9FF44C0DAFFDECF45F086
:101DB600DDCF46F045C047F046C048F0496A4A6A5A
:101DC6004B6A4C6A4D6A4E6A3DC01DF03EC01EF01D
:101DD60047C01FF048C020F049C021F04AC022F099
:101DE6004BC023F04CC024F04DC025F04EC026F069
:101DF60088EC0DF01DC03DF01EC03EF058EF0FF010
:101E06003FC0D9FF40C0DAFFDECFF6FFDDCFF7FFD8
:101E1600000EF86E0800F550250AD8A415EF0FF04D
:101E260017EF0FF02EEF0FF03FC0D9FF40C0DAFFDB
:101E3600DE2A000EDD22000E036E250E026E3DC068
:101E460004F03EC005F0DDEC10F0000E3E6E010E13
:101E56003D6E58EF0FF03FC0D9FF40C0DAFFDE2AD3
:101E6600000EDD22000E3E6E000E3D6E58EF0FF0A6
:101E76003FC0D9FF40C0DAFFDECFF6FFDDCFF7FF68
:101E8600000EF86E0800F550026E036A3DC004F0BD
:101E96003EC005F0DDEC10F03FC0D9FF40C0DAFFD0
:101EA600DE2A000EDD2228EF0FF01200086E978062
:101EB60097B060EF0FF062EF0FF05BEF0FF0085096
:101EC6000824FE0B926E95B46BEF0FF06DEF0FF0DA
:101ED60066EF0FF097AC72EF0FF074EF0FF07FEF35
:101EE6000FF0978497B47AEF0FF07CEF0FF075EF51
:101EF6000FF0000EFCEF0FF002C092FF95B486EFD4
:101F06000FF088EF0FF081EF0FF097AC8DEF0FF029
:101F16008FEF0FF099EF0FF0978497B495EF0FF0CE
:101F260097EF0FF090EF0FF07CEF0FF0978297B2DC
:101F36009FEF0FF0A1EF0FF09AEF0FF0D880083463
:101F4600926E95B4A9EF0FF0ABEF0FF0A4EF0FF080
:101F560097ACB0EF0FF0B2EF0FF0BCEF0FF0978435
:101F660097B4B8EF0FF0BAEF0FF0B3EF0FF07CEFC6
:101F76000FF09786100E036E270E046E000E056E88
:101F8600000E066EE1EF0FF00306000E045A055A26
:101F9600065A0350041005100610D8A4D5EF0FF00A
:101FA600D7EF0FF0E1EF0FF0978497B4DDEF0FF066
:101FB600DFEF0FF0D8EF0FF07CEF0FF095A0E6EF14
:101FC6000FF0E8EF0FF0C7EF0FF092CF07F0978A08
:101FD600978897B8F1EF0FF0F3EF0FF0ECEF0FF0F3
:101FE600978497B4F9EF0FF0FBEF0FF0F4EF0FF0D3
:101FF6000750120020EE12F0070EDE6AE806FDE238
:102006000A500B100C100D100E100F10101011109E
:10201600D8B410EF10F012EF10F064EF10F0010ECC
:102026001A6E20EF10F0D8900A360B360C360D36A5
:102036000E360F36103611361A2A11AE25EF10F06D
:1020460027EF10F016EF10F0D8901236133614362C
:10205600153616361736183619360A50025C0B50E6
:1020660003580C5004580D5005580E5006580F5082
:1020760007581050085811500958D8A045EF10F0CD
:1020860047EF10F058EF10F00A50025E0B50035A5B
:102096000C50045A0D50055A0E50065A0F50075A46
:1020A6001050085A1150095A1280D8901132103225
:1020B6000F320E320D320C320B320A321A2E27EF45
:1020C60010F012C002F013C003F014C004F015C0E3
:1020D60005F016C006F017C007F018C008F019C0C2
:1020E60009F012000A500B100C100D100E100F10F4
:1020F60010101110D8B482EF10F084EF10F0CCEF6E
:1021060010F0010E126E92EF10F0D8900A360B36D0
:102116000C360D360E360F3610361136122A11AE23
:1021260097EF10F099EF10F088EF10F00A50025C6C
:102136000B5003580C5004580D5005580E500658B5
:102146000F5007581050085811500958D8A0AEEF34
:1021560010F0B0EF10F0C0EF10F00A50025E0B5016
:10216600035A0C50045A0D50055A0E50065A0F5079
:10217600075A1050085A1150095AD8901132103285
:102186000F320E320D320C320B320A32122E99EF0A
:1021960010F002C002F003C003F004C004F005C052
:1021A60005F006C006F007C007F008C008F009C031
:1021B60009F0120004500510D8B4E4EF10F0E6EF71
:1021C60010F0EFEF10F004500510D8A4EDEF10F06A
:1021D600EFEF10F0F4EF10F0025049EC17F041EF7A
:1021E60011F020EE04F00450D9260550DA22DE5014
:1021F600DE10D8B401EF11F003EF11F01EEF11F06D
:1022060020EE04F00450D9260550DA2210EE02F032
:102216000450E1260550E222DE50E65CE650800AD4
:102226000A6EDE50800A0A58D8B01CEF11F01EEF75
:1022360011F041EF11F020EE02F00450D9260550BE
:10224600DA22DECF06F0DDCF07F004C0D9FF05C0E5
:10225600DAFFDECF08F0DDCF09F006500824D96E8C
:1022660007500920DA6E02C0DFFF20EE02F00450AC
:10227600D9260550DA22DE2A000EDD221200000ED3
:10228600076E05BE4BEF11F049EF11F051EF11F05B
:10229600046C051ED8B0052A010E076E03BE58EF62
:1022A60011F056EF11F05EEF11F0026C031ED8B07C
:1022B600032A010E071A000E096E000E086E04505E
:1022C6000510D8B469EF11F06BEF11F093EF11F030
:1022D600010E066E73EF11F0D89004360536062A05
:1022E60005AE78EF11F07AEF11F06FEF11F0D8909C
:1022F600083609360450025C05500358D8A086EF0C
:1023060011F088EF11F08DEF11F00450025E0550C8
:10231600035A0880D89005320432062E7AEF11F05F
:102326000750D8B499EF11F09BEF11F09FEF11F021
:10233600086C091ED8B0092A08C002F009C003F0CB
:102346001200046E978097B0ABEF11F0ADEF11F06D
:10235600A6EF11F004500424FE0B926E95B4B6EF6E
:1023660011F0B8EF11F0B1EF11F097ACBDEF11F02D
:10237600BFEF11F0C9EF11F0978497B4C5EF11F0D4
:10238600C7EF11F0C0EF11F005EF12F002C092FF97
:1023960095B4D0EF11F0D2EF11F0CBEF11F097AC6E
:1023A600D7EF11F0D9EF11F0E3EF11F0978497B45E
:1023B600DFEF11F0E1EF11F0DAEF11F005EF12F0B7
:1023C60003C092FF95B4EAEF11F0ECEF11F0E5EFE0
:1023D60011F097ACF1EF11F0F3EF11F0FDEF11F002
:1023E600978497B4F9EF11F0FBEF11F0F4EF11F0C9
:1023F60005EF12F0978497B403EF12F005EF12F091
:10240600FEEF11F012005BA00BEF12F00DEF12F0D1
:1024160017EF12F014C00BF015C00CF012C00DF03F
:1024260013C00EF009EC16F017BE1CEF12F01EEFEB
:1024360012F024EF12F016C01BF017C01CF028EFA4
:1024460012F0000E1C6E000E1B6E000E1A6E000EB1
:10245600196E3AEF12F0000E036E200E026E12C0D5
:1024660004F013C005F0DDEC10F0194A1A2A1B50CF
:10247600195C1A50800A186E1C50800A1858D8A089
:1024860047EF12F049EF12F02EEF12F05BB04EEF6D
:1024960012F050EF12F05AEF12F014C00BF015C004
:1024A6000CF012C00DF013C00EF009EC16F014C0BB
:1024B60002F015C003F08BEC16F01B500224126ECE
:1024C6001C500320136E1200046E8B908B928B941B
:1024D6008B968B988B9E04C003F0000E906E070EB1
:1024E600026E7D0EE82EFED7022EFCD700F00438D1
:1024F6000F0B046E04500F0B046E04508009046E1B
:1025060004C090FF070E026E7D0EE82EFED7022E47
:10251600FCD700F004500F0B046E04C090FF070EAA
:10252600026E7D0EE82EFED7022EFCD700F0000EBE
:10253600906E070E026E7D0EE82EFED7022EFCD799
:1025460000F003C004F004500F0B046E0450800921
:10255600046E04C090FF070E026E7D0EE82EFED7B5
:10256600022EFCD700F004500F0B046E04C090FF3F
:10257600070E026E7D0EE82EFED7022EFCD700F067
:102586001200046E8B908B928B948B968B988B9EFD
:1025960004C003F0100E906E070E026E7D0EE82E3C
:1025A600FED7022EFCD700F004380F0B046E045041
:1025B6000F0B046E04509009046E04C090FF070EC2
:1025C600026E7D0EE82EFED7022EFCD700F00450D8
:1025D6001F0B046E04C090FF070E026E7D0EE82EE0
:1025E600FED7022EFCD700F0100E906E070E026E7C
:1025F6007D0EE82EFED7022EFCD700F003C004F0B5
:1026060004500F0B046E04509009046E04C090FF32
:10261600070E026E7D0EE82EFED7022EFCD700F0C6
:1026260004501F0B046E04C090FF070E026E7D0E51
:10263600E82EFED7022EFCD700F01200000E076E21
:1026460003BE2AEF13F028EF13F030EF13F0026CFD
:10265600031ED8B0032A010E076E05BE37EF13F02E
:1026660035EF13F03BEF13F0046C051ED8B0052AC6
:1026760004500510D8B442EF13F044EF13F068EF9E
:1026860013F0010E066E4CEF13F0D89004360536A3
:10269600062A05AE51EF13F053EF13F048EF13F08F
:1026A6000450025C05500358D8A05CEF13F05EEFAF
:1026B60013F062EF13F00450025E0550035AD890EF
:1026C60005320432062E53EF13F00750D8B46EEFDE
:1026D60013F070EF13F074EF13F0026C031ED8B012
:1026E600032A02C002F003C003F01200000E0A6EB5
:1026F600000E0B6E000E0C6E000E0D6E06500710CF
:1027060008100910D8B48AEF13F08CEF13F0C2EF5B
:1027160013F0010E0E6E96EF13F0D89006360736BC
:10272600083609360E2A09AE9BEF13F09DEF13F01B
:1027360090EF13F0D8900A360B360C360D3606504D
:10274600025C075003580850045809500558D8A091
:10275600AFEF13F0B1EF13F0BAEF13F00650025ECD
:102766000750035A0850045A0950055A0A80D8904F
:1027760009320832073206320E2E9DEF13F00AC0D8
:1027860002F00BC003F00CC004F00DC005F01200FF
:10279600050A0F141A1F24292E33383D42474D527D
:1027A600575C61666B70757A80858A8F94999EA353
:1027B600A8ADB3B8BDC2C7CCD1D6DBE0E6EBF0F529
:1027C600FAFF0A141F29333D47525C66707A858FDB
:1027D60099A3ADB8C2CCD6E0EBF5FFF5EBE0D6CCCD
:1027E600C2B8ADA3998F857A70665C52473D33298E
:1027F6001F140A00808F9FAEBDCAD7E2EBF3F9FD26
:10280600FFFFFDF9F3EBE2D7CABDAE9F8F80706084
:10281600514235281D140C0602000002060C141D38
:10282600283542516070000E026E680E59EC0FF0AA
:102836000B6E0BAE21EF14F023EF14F040EF14F003
:10284600000E026E0B507F0B036E680EA4EC11F0A7
:10285600000E0A6E000E096EC80E00D0E82EFDD7D7
:10286600094A0A2AF40E095C010E0A58D8A03EEF5E
:1028760014F040EF14F02FEF14F0020E026E680E03
:1028860059EC0FF00C6E0CAC4BEF14F04DEF14F04E
:1028960055EF14F0020E026E0C50BF0B036E680E5D
:1028A600A4EC11F012000D6E3C0E0D605DEF14F0FD
:1028B6005FEF14F08AEF14F00DC002F0036A000E09
:1028C600056E0A0E046E21EC13F002C00AF003C076
:1028D6000BF00DC002F0036A000E056E0A0E046EC0
:1028E60042EC11F00250100DF3500A240D6E000E4A
:1028F600026E680E59EC0FF00C6E800E0C16000E70
:10290600026E0C500D10036E680EA4EC11F012004E
:102916000D6E180E0D6092EF14F094EF14F0BFEFE9
:1029260014F00DC002F0036A000E056E0A0E046E66
:1029360021EC13F002C00AF003C00BF00DC002F048
:10294600036A000E056E0A0E046E42EC11F0025088
:10295600100DF3500A240D6E020E026E680E59EC2D
:102966000FF00C6E400E0C16020E026E0C500D107F
:10297600036E680EA4EC11F012000D6E180E0D60B9
:10298600C7EF14F0C9EF14F0F4EF14F00DC002F025
:10299600036A000E056E0A0E046E21EC13F002C0E7
:1029A6000AF003C00BF00DC002F0036A000E056EBC
:1029B6000A0E046E42EC11F00250100DF3500A2478
:1029C6000D6E090E026E680E59EC0FF00C6E400E7D
:1029D6000C16090E026E0C500D10036E680EA4EC58
:1029E60011F01200046E8490F00E076E000E066E53
:1029F6000450026E036A023A033AF00E03160250BE
:102A06000F0B0312F00E021606500210066E075048
:102A16000310076E0750056E0E01925105C092FE17
:102A260095A118EF15F01AEF15F013EF15F0959123
:102A360006C005F0925105C092FE95A125EF15F04E
:102A460027EF15F020EF15F08480120051C055F0E5
:102A560052C056F0000E0001BC6F000EBB6F47EF70
:102A660015F04FC03DF050C03EF0550E3F6E000EC3
:102A7600406E53C041F054C042F088EC0EF03D5019
:102A86000001BB273E50BC2355C0F6FF56C0F7FFDA
:102A9600000EF86E0800F5500009D8A455EF15F0A1
:102AA60057EF15F034EF15F0BBC04FF0BCC050F037
:102AB60012000C6E3C0E0C6063EF15F065EF15F01E
:102AC60087EF15F00CC002F0036A000E056E0A0EC1
:102AD600046E21EC13F002C00AF003C00BF00CC028
:102AE60002F0036A000E056E0A0E046E42EC11F047
:102AF6000250100DF3500A240C6E010E026E0CC02B
:102B060003F0680EA4EC11F012000C6E3C0E0C6083
:102B16008FEF15F091EF15F0B3EF15F00CC002F042
:102B2600036A000E056E0A0E046E21EC13F002C055
:102B36000AF003C00BF00CC002F0036A000E056E2B
:102B46000A0E046E42EC11F00250100DF3500A24E6
:102B56000C6E070E026E0CC003F0680EA4EC11F0AA
:102B660012000C6E3C0E0C60BBEF15F0BDEF15F0BD
:102B7600DFEF15F00CC002F0036A000E056E0A0EB8
:102B8600046E21EC13F002C00AF003C00BF00CC077
:102B960002F0036A000E056E0A0E046E42EC11F096
:102BA6000250100DF3500A240C6E080E026E0CC073
:102BB60003F0680EA4EC11F01200640E0001686FB9
:102BC600000E696F60C06AF061C06BF0000E6D6F39
:102BD600000E6C6F000E6F6F000E6E6F6A0E4F6EFA
:102BE600000E506E62C051F063C052F0680E536E14
:102BF600000E546E29EC15F000016C516025D96E5B
:102C06006D516121DA6E000EDF6E1200000E116E3C
:102C1600000E106E1AEF16F00FC002F0036A0DC018
:102C260004F00EC005F0DDEC10F0104A112A105029
:102C36000B24D96E11500C20DA6EDF500F6E0F5038
:102C4600D8A428EF16F02AEF16F00FEF16F01200B0
:102C5600000E606E000E0F015F6F608E608060B0C8
:102C660037EF16F039EF16F032EF16F0609E63CFAD
:102C760006F064CF07F0060E086ED89007320632CB
:102C8600082E40EF16F006C002F007C003F0046AF3
:102C9600056A1200818E819C960EF66E270EF76EDF
:102CA600000EF86E01EE00F010EE96F00900F5CF7A
:102CB600EEFFE550E150FAE100EEABF0380EEE6AB9
:102CC600E806FDE15C6A5B6A5D905D92000183EF58
:102CD60007F0000ECE6E000ECD6ECF88CF8ACF9451
:102CE600CF82D250F00B0109D26E0E01CE91CF8069
:102CF600120EAF6F000EAB6E000EAA6EAC50F00B4C
:102D06000509AC6EAC8ED091C881F28CF28E1200A1
:102D160002C004F003C005F093EF16F0024A032A3E
:102D260002C0D9FF03C0DAFFDF50D8A49DEF16F02A
:102D36009FEF16F091EF16F00450025C026E0550FC
:102D46000358036E12008A868A88130E0E01B76F27
:102D5600140EB86F100EFB6F0F0EFA6F0C0E936EFB
:102D66009650F00B0809966E969E969C968A1200CF
:102D7600000E026E680E59EC0FF00A6E0AC009F0DA
:102D86000F0E09160A380F0B070B0A0DF35009240C
:102D96001200020E026E680E59EC0FF00A6E0AC09F
:102DA60009F00F0E09160A380F0B030B0A0DF35024
:102DB60009241200070E026E680E59EC0FF00A6E17
:102DC6000AC009F00F0E09160A380F0B070B0A0D79
:102DD600F35009241200090E026E680E59EC0FF02A
:102DE6000A6E0AC009F00F0E09160A380F0B030BFC
:102DF6000A0DF350092412000E01958F958D968BBE
:102E06009651F00B0209966F899089968992120E57
:102E1600F06F110EF26F1200330E67EC12F0320EE5
:102E260067EC12F02C0E67EC12F00C0E67EC12F049
:102E3600010E67EC12F01200010E026E680E59ECDC
:102E46000FF00A6E0AC009F00F0E09160A380F0BAA
:102E56000A0DF35009241200080E026E680E59EC92
:102E66000FF00A6E0AC009F00F0E09160A380F0B8A
:102E76000A0DF35009241200C1C002F0C2C003F0CB
:0E2E860012008880000E0F01216F1200120052
:020000040020DA
:10000000FF0FFF0FFF0FFF0FFF0FFF0FFF0FFF0F80
:020000040030CA
:0C000000FFFFFFFF9FFFFFFFFFFFFFFF60
:00000001FF
